:100000000C9472000C949A000C949A000C949A0030
:100010000C949A000C949A000C949A000C949A00F8
:100020000C949A000C949A000C949A000C949019D9
:100030000C949A000C949A000C949A000C949A00D8
:100040000C9446190C949A000C9414190C94EE1804
:100050000C949A000C949A000C949A000C949A00B8
:100060000C944C1A0C949A006364696E6F707375EB
:1000700078585B0041414100596F757220416374AB
:10008000696F6E3A0000000000250028002B000078
:1000900000000023002600290000000008000201E3
:1000A0000000030407000000000000000000000042
:1000B00000240027002A00010204081020408001CB
:1000C000020408102001020408102004040404049F
:1000D00004040402020202020203030303030300F6
:1000E000B01B652911241FBECFEFD8E0DEBFCDBF06
:1000F00013E0A0E0B1E0E6E5F9E602C005900D925C
:10010000A83AB107D9F727E0A8EAB3E001C01D92E9
:10011000A339B207E1F710E0C1E7D0E004C02197AE
:10012000FE010E940E2CC037D107C9F70E94471C60
:100130000C949E340C940000BC0120917C063091FC
:100140007D0640917A0650917B064227532748232B
:10015000572391E0452B09F490E020953095262314
:10016000372381E0232B09F480E089230895BC0123
:1001700020917A0630917B0640917C0650917D0655
:10018000422753274823572391E0452B09F490E059
:10019000209530952623372381E0232B09F480E036
:1001A00089230895982F2091620681E0213208F07A
:1001B00043C080913E068111FCCF8091610632E000
:1001C00030933E0690933D069FEF90933C0610922D
:1001D0003B0620933A06A1E4B6E0EAE1F6E090E0BF
:1001E000291331C01092190690911906880F892B96
:1001F0008093190680911806813049F510921806EF
:10020000809119068093BB008091BC0083FDF8CFDC
:1002100085EC8093BC0080913E068230E1F38091B2
:100220003C068F3FB1F080913C068032A1F0809176
:100230003C06803391F084E01092400610926206F2
:1002400010923F0608953D9131939F5FC9CF85EE8F
:10025000E0CF80E0F1CF82E0EFCF83E0EDCF0895F3
:1002600008959FB7F894A4E6B6E09196ED91FC91BD
:100270009297808190962C91822B80839FBF0895C6
:100280009FB7F894A4E6B6E05E96ED91FC915F9777
:1002900080815D962C91822B80839FBF08959FB7AC
:1002A000F894A4E6B6E05B96ED91FC915C978081B2
:1002B0005A962C91822B80839FBF08958F929F9294
:1002C000AF92BF92CF92DF92EF92FF920F931F9364
:1002D000CF93DF93D0E0C0E0D12C082F880F110B13
:1002E0008BE0E82EF12C812C912C54018394CC2EA0
:1002F000C8010C2E02C0959587950A94E2F780FFFD
:100300003FC00E9440018FB7F894E0917F06F091C2
:100310008006208190917E069095922390838FBFD6
:10032000C7010197F1F7E0918806F0918906808175
:1003300090918706892351F0D501C40104C0880F2C
:10034000991FAA1FBB1FCA94D2F7D82A0E944F0137
:100350002196C830D10559F60E94400187E090E00F
:100360000197F1F78D2DDF91CF911F910F91FF90A4
:10037000EF90DF90CF90BF90AF909F908F900895B7
:100380009FB7F894E0918206F091830620818091D6
:1003900081068095822380839FBFB5CF9FB7F89455
:1003A000A4E6B6E09196ED91FC919297208190960B
:1003B0008C918095822380839FBF0895AF92BF92D6
:1003C000CF92DF92EF92FF920F931F93CF93DF9321
:1003D0006C017B018B01040F151FEB015E01AE1850
:1003E000BF08C017D10759F06991D601ED91FC9172
:1003F0000190F081E02DC6010995892B79F7C5019F
:10040000DF91CF911F910F91FF90EF90DF90CF90F0
:10041000BF90AF900895FC01538D448D252F30E09F
:10042000842F90E0821B930B541710F0CF96089501
:1004300001970895FC01918D828D981761F0A28D2E
:10044000AE0FBF2FB11D5D968C91928D9F5F9F73F4
:10045000928F90E008958FEF9FEF0895FC01918DAA
:10046000828D981731F0828DE80FF11D858D90E017
:1004700008958FEF9FEF0895FC01918D228D892FB4
:1004800090E0805C9F4F821B91098F73992708959C
:1004900082E996E00E943C0221E0892B09F420E0E9
:1004A000822F0895FC01A48DA80FB92FB11DA35A66
:1004B000BF4F2C91848D90E001968F739927848F84
:1004C000A689B7892C93A089B1898C9183708064A7
:1004D0008C93938D848D981306C00288F389E02D48
:1004E00080818F7D80830895EF92FF920F931F93F9
:1004F000CF93DF93EC0181E0888F9B8D8C8D9813D7
:100500001AC0E889F989808185FF15C09FB7F894E2
:10051000EE89FF896083E889F9898081837080642E
:1005200080839FBF81E090E0DF91CF911F910F9179
:10053000FF90EF900895F62E0B8D10E00F5F1F4F88
:100540000F731127E02E8C8D8E110CC00FB607FC97
:10055000FACFE889F989808185FFF5CFCE010E9425
:100560005202F1CFEB8DEC0FFD2FF11DE35AFF4F3F
:10057000F0829FB7F8940B8FEA89FB8980818062B3
:10058000CFCFCF93DF93EC01888D8823B9F0AA8970
:10059000BB89E889F9898C9185FD03C0808186FD3E
:1005A0000DC00FB607FCF7CF8C9185FFF2CF80818D
:1005B00085FFEDCFCE010E945202E9CFDF91CF91AE
:1005C0000895833081F028F4813099F08230A9F0C9
:1005D00008958730A9F08830C9F08430B1F4809153
:1005E00080008F7D03C0809180008F778093800092
:1005F000089584B58F7784BD089584B58F7DFBCF32
:100600008091B0008F778093B00008958091B00002
:100610008F7DF9CFCF93DF93EBE9F0E08491E9EBA5
:10062000F0E0D491EDECF0E0C491CC23A1F0811185
:100630000E94E102EC2FF0E0EE0FFF1FE157FF4FA9
:10064000A591B491EC91ED2381E090E009F480E074
:10065000DF91CF91089580E090E0FACF1F93CF9380
:10066000DF93282F30E0F901E756FF4F8491F9011D
:10067000E954FF4FD491F901E553FF4FC491CC23C6
:10068000A9F0162F81110E94E102EC2FF0E0EE0F8D
:10069000FF1FEB57FF4FA591B4918FB7F894EC91E2
:1006A000111108C0D095DE23DC938FBFDF91CF916D
:1006B0001F910895DE2BF8CFCF93DF9390E0FC01DC
:1006C000E954FF4F249185539F4FFC018491882367
:1006D000C9F090E0880F991FFC01E355FF4FA591E9
:1006E000B491FC01EB57FF4FC591D49161110DC03E
:1006F0009FB7F8948C91209582238C93888128232E
:1007000028839FBFDF91CF910895623051F49FB746
:10071000F8943C91822F809583238C93E8812E2B33
:10072000EFCF8FB7F894EC912E2B2C938FBFEACF9D
:100730008E50806480937C0080917A0080648093E6
:100740007A0080917A0086FDFCCF809178009091AC
:10075000790008953FB7F8948091ED049091EE04EC
:10076000A091EF04B091F00426B5A89B05C02F3FDF
:1007700019F00196A11DB11D3FBFBA2FA92F982FC7
:100780008827BC01CD01620F711D811D911D42E0C2
:10079000660F771F881F991F4A95D1F708958F928A
:1007A0009F92AF92BF92CF92DF92EF92FF926B0136
:1007B0007C010E94AA034B015C01C114D104E10435
:1007C000F104B9F00E94AA03681979098A099B0902
:1007D000683E73408105910580F321E0C21AD1087B
:1007E000E108F10888EE880E83E0981EA11CB11C78
:1007F000E4CFFF90EF90DF90CF90BF90AF909F90AD
:100800008F900895EF92FF920F931F93CF93DF93F2
:100810007C01062F0E94CE01E70110E0CE018E1967
:100820009F098017910724F489910E945E01F6CFF9
:100830000E94310160918E0670E090E080E0DF91CF
:10084000CF911F910F91FF90EF900C94CF032FB792
:10085000F8946091E9047091EA048091EB0490911E
:10086000EC042FBF0895DC01EC91EC3090F511966B
:100870008C91119728E830E0281B310987FD3395CA
:10088000220F331F220F331F6217730784F0129653
:100890008C9128E532E0281B310987FD3395220F22
:1008A000331F220F331F621773070CF49B01225072
:1008B0003109220F331F4FB7F8948E2F90E0FC01BF
:1008C000EE0FFF1FE80FF91FE55CF84F328321831D
:1008D0004FBF0895DC01ED91FC910190F081E02D76
:1008E00009941F93CF93DF93142FC7E8D7E0288193
:1008F00039819A8141E040933F06909361061092BE
:100900004006109262068068682F70E0C9010E945C
:100910006A0488819981DC01ED91FC910190F0815C
:10092000E02D612F099581E0DF91CF911F910C940B
:10093000D20085ED8093BC008091BC0084FDFCCF8B
:1009400010923E0608952091C404260F3327331FCA
:1009500021323105ECF420913E06FC0190E080E06C
:10096000243069F082E00895A091C4042191AC0183
:100970004C555B4FA40FB52FB11D2C9301968617D4
:1009800098F38091C404680F6093C40480E00895D4
:1009900081E008950895E091170680911606E81702
:1009A00030F4F0E0EC57FB4F808190E008958FEF3A
:1009B0009FEF089590911706809116062FEF3FEF55
:1009C000981748F4E92FF0E0EC57FB4F208130E016
:1009D0009F5F90931706C901089580911606909124
:1009E0001706891B990B0895CF92DF92EF92FF9221
:1009F0000F931F93CF93DF937C01CB018A0120914A
:100A00003F06222389F0EB016B01C40ED51ECC15E5
:100A1000DD0569F06991D701ED91FC910190F081BC
:100A2000E02DC7010995F3CF642F0E94A304C801EC
:100A3000DF91CF911F910F91FF90EF90DF90CF90BA
:100A40000895CF93DF931F92CDB7DEB769832091CE
:100A50003F062223F9F020916206203258F021E06F
:100A600030E0FC013383228390E080E00F90DF913F
:100A7000CF91089580914006E82FF0E0EF5BF94FA9
:100A8000998190838F5F809340068093620681E016
:100A900090E0ECCF61E0CE0101960E94A304F7CF75
:100AA00090E080E0089561E084E00E942E0364E617
:100AB00070E080E090E00E94CF0360E084E00E945C
:100AC0002E0364E670E080E090E00C94CF030F9377
:100AD0001F93CF930E9427040091A9031091AA03AA
:100AE0002091AB033091AC03601B710B820B930B15
:100AF000653F714081059105C0F00E942704609315
:100B0000A9037093AA038093AB039093AC03C091A5
:100B1000A80360E0C11101C061E08DE00E942E03D6
:100B200081E0C11180E08093A803CF911F910F91C4
:100B300008950F931F93CF93DB01FC0101E010E0B8
:100B40002081222339F13C91231322C09D01D90138
:100B5000CC912F5F3F4FCC2371F0AF014F5F5F4FC0
:100B6000E081CE1799F0261B370BF801E21BF30B3F
:100B7000E40FF51FDB012C912111E2CF9F01281B0F
:100B8000390BC901CF911F910F910895FA01DFCF61
:100B90003196D6CF90E080E0F5CF61E0FC0187810F
:100BA0000C942E0360E0FC0187810C942E038EBD13
:100BB00000000DB407FEFDCF8EB50895862F0C946E
:100BC000D70584E08093660780E697E00E94D2050F
:100BD00089EB0E94D70580E697E00E94CD058FE063
:100BE00090E00197F1F79FB7F8948091630688230E
:100BF00019F081508093630680916306811103C0D0
:100C00008CB58F7B8CBD9FBF0895CF9380E697E016
:100C10000E94D20585E00E94D7058FEF0E94D7057C
:100C2000C82F80E697E00E94CD058C2F8170CF9170
:100C30000895CF92DF92EF92FF920F931F93CF937D
:100C4000DF93CDB7DEB728970FB6F894DEBF0FBE9F
:100C5000CDBFC0906407D0906507F12CE12C80E6F1
:100C600097E00E94D20585E00E94D70580E00E94AF
:100C7000D70580FD14C080E697E00E94CD0581E095
:100C800028960FB6F894DEBF0FBECDBFDF91CF918F
:100C90001F910F91FF90EF90DF90CF9008950E94E9
:100CA0002704C114D104E104F10469F009811A8117
:100CB0002B813C81601B710B820B930B6C157D05A6
:100CC0008E059F0598F280E697E00E94CD0580E0B2
:100CD000D7CFEF92FF920F931F93CF93DF93C72F3E
:100CE000D82F7A0189010E941906882351F180E6E4
:100CF00097E00E94D20583E00E94D7058D2F0E94C5
:100D0000D7058C2F0E94D70580E00E94D705E70108
:100D1000E00EF11E80E00E94D7058993CE15DF0515
:100D2000C9F780E697E00E94CD050E940506811173
:100D3000FCCFC801DF91CF911F910F91FF90EF90F1
:100D4000089510E000E0F5CFCF938AE08093670725
:100D500062E08CE00E945C03CFB7F8948091630658
:100D6000811127C0E5EDF0E08491E1ECF0E0949191
:100D7000E82FF0E0EE0FFF1FE355FF4FA591B49170
:100D8000EC91E92321F461E08AE00E942E0361E006
:100D90008AE00E945C038CB580618CBD8CB5806458
:100DA0008CBD61E08DE00E945C0361E08BE00E94FD
:100DB0005C03809163068F5F80936306CFBF8CB521
:100DC0008F7D8CBD8CB58C7F8CBD8DB581608DBDCC
:100DD0008CB5837F8CBD80E697E00E94CD0588ECC2
:100DE00090E0909365078093640784E080936607A2
:100DF00080E697E00E94D2058BEA0E94D70580E644
:100E000097E00E94CD058FE090E00197F1F786E032
:100E10008093660781E0CF91089580E697E00E9475
:100E2000D205809166070E94D70580E697E00C9472
:100E3000CD05CF93DF93C72FD82F0E940D0780E6F3
:100E400097E00E94D20580E20E94D7058D2F0E9474
:100E5000D7058C2F0E94D70580E00E94D70580E639
:100E600097E00E94CD050E9405068111FCCF81E02C
:100E7000DF91CF9108956F927F928F929F92AF9260
:100E8000BF92CF92DF92EF92FF921F93CF93DF93A7
:100E9000CDB7DEB729970FB6F894DEBF0FBECDBF32
:100EA0000E94270481E080938E06FE01339697E02E
:100EB000DF011D929A95E9F7898382E48A8315E020
:100EC00027E0C22ED12C7E01BAE0EB0EF11C39E7EF
:100ED000A32E36E0B32E0E9440010E944F010E94D3
:100EE000CE01C6010197F1F7FE0131963F0194E66C
:100EF000892E96E0992ED3018D913D010E945E01CD
:100F0000F40181934F016E147F04A9F78091650667
:100F1000893769F48DE6882E86E0982E80E00E945D
:100F20005E01D4018D934D01AA16BB06B9F70E944C
:100F3000310180916506807F803711F0115059F69C
:100F400080917C0690917D0690937B0680937A0633
:100F5000809167069091680690937D0680937C0649
:100F60000E94270460938A0670938B0680938C06F8
:100F700090938D0629960FB6F894DEBF0FBECDBFB5
:100F8000DF91CF911F91FF90EF90DF90CF90BF90B6
:100F9000AF909F908F907F906F90089580913E06C4
:100FA0008111FCCF942F81E080933E0680933D0613
:100FB0002FEF20933C0610923B06240F20933A0615
:100FC0008093190680911906660F771F682B60932E
:100FD000190680911806813019F510921806809133
:100FE00019068093BB008091BC0083FDF8CF85EC8F
:100FF0008093BC0080913E068130E1F380913B06F6
:10100000841710F490913B06AAE1B6E0E4E8F4E01E
:1010100080E0891307C01092170680931606089582
:1010200085EEE6CF2D9121938F5FF3CFCF93DF93A2
:10103000C7E8D7E0288139819A8141E040933F0693
:101040009093610610924006109262068068682FA5
:1010500070E0C9010E946A0481E00E94D2006A81A6
:1010600070E041E050E0888199810E94CE0788813C
:101070009981DC01ED91FC910284F385E02D0995C5
:10108000DF91CF910895CF93DF93109217061092BE
:101090001606109240061092620610923E0681E0FB
:1010A00080933D061092180661E082E10E942E03B3
:1010B00061E083E10E942E038091B9008E7F8093CE
:1010C000B9008091B9008D7F8093B90088E4809346
:1010D000B80085E48093BC008FE291E09093150600
:1010E0008093140680E391E0909313068093120698
:1010F00082E10E941608843419F0803109F079C029
:1011000081E080938A07C0918D07D0918E07AE0150
:1011100070E060E00E947104D0938E07C0938D0749
:10112000C0918B07D0918C0780918A0781110BC0E9
:1011300089E2809389078FE297E0909388078093F4
:1011400087070E944308AE0170E060E08FE00E94D4
:101150007104D0938C07C0938B0741E050E060E0AE
:1011600070E080E00E94710463E070E080E090E055
:101170000E94CF0343E050E060E070E080E00E9416
:10118000710480918D0790918E07853D910511F135
:1011900038F4009749F1803C910509F181E02AC0BB
:1011A000863F910591F08F3F910541F08B3E91056F
:1011B000A9F762E370E080E090E004C063E070E0D3
:1011C00080E090E00E94CF03E9CF68E170E080E02A
:1011D00090E0F8CF65E670E080E090E0F3CF6AE958
:1011E00070E080E090E0EECF6CEB72E080E090E0A9
:1011F000E9CF80E0DF91CF9108950F931F93CF93B4
:10120000DF93C7E8D7E0288139819A8141E0409394
:101210003F06909361061092400610926206806825
:10122000682F70E0C9010E946A0481E00E94D20028
:101230006A8170E042E050E0888199810E94CE0787
:1012400088819981DC01ED91FC910284F385E02D88
:1012500009958C0188819981DC01ED91FC910284D2
:10126000F385E02D099520E0382FC801822B932BC0
:10127000DF91CF911F910F910895CF92DF92EF925E
:10128000FF920F931F93CF93DF937C018B01EA01B1
:10129000690180918A0781110BC089E280938907D7
:1012A0008FE297E090938807809387070E94430816
:1012B00084E10E94FD08F6019183808386E10E940B
:1012C000FD08F7019183808388E10E94FD08F80101
:1012D000918380838AE10E94FD08998388838091AD
:1012E0008D0790918E07853D910581F170F40097EF
:1012F000B9F1803C910579F1DF91CF911F910F9168
:10130000FF90EF90DF90CF900895863F9105C9F050
:101310008F3F910541F08B3E910571F762E370E0DC
:1013200080E090E004C063E070E080E090E0DF9156
:10133000CF911F910F91FF90EF90DF90CF900C9481
:10134000CF0368E170E080E090E0F1CF65E670E007
:1013500080E090E0ECCF6AE970E080E090E0E7CFD9
:101360006CEB72E080E090E0E2CFCF92DF92EF9200
:10137000FF920F931F93CF93DF93CDB7DEB72897DC
:101380000FB6F894DEBF0FBECDBF9E012F5F3F4F5B
:10139000AE014D5F5F4FBE016B5F7F4FCE01079681
:1013A0000E943D0909811A810115110579F42896D9
:1013B0000FB6F894DEBF0FBECDBFDF91CF911F9166
:1013C0000F91FF90EF90DF90CF9008956F81788517
:1013D00090E080E00E947B296B017C01B80190E0E5
:1013E00080E00E947B299B01AC01C701B6010E94ED
:1013F000412B20E030E04FE753E40E94DC290E94BB
:10140000B32BCB01D4CFCF92DF92EF92FF920F9309
:101410001F93CF93DF93CDB7DEB728970FB6F8941D
:10142000DEBF0FBECDBF9E012F5F3F4FAE014D5FB0
:101430005F4FBE016B5F7F4FCE0107960E943D0953
:1014400009811A810115110579F428960FB6F894CF
:10145000DEBF0FBECDBFDF91CF911F910F91FF90E7
:10146000EF90DF90CF9008956D817E8190E080E0D5
:101470000E947B296B017C01B80190E080E00E9412
:101480007B299B01AC01C701B6010E94412B20E0E2
:1014900030E04FE753E40E94DC290E94B32BCB01DC
:1014A000D4CFCF92DF92EF92FF920F931F93CF93FF
:1014B000DF93CDB7DEB728970FB6F894DEBF0FBE27
:1014C000CDBF9E012F5F3F4FAE014D5F5F4FBE010D
:1014D0006B5F7F4FCE0107960E943D0909811A81FB
:1014E0000115110579F428960FB6F894DEBF0FBEEA
:1014F000CDBFDF91CF911F910F91FF90EF90DF90C3
:10150000CF9008956B817C8190E080E00E947B29E0
:101510006B017C01B80190E080E00E947B299B0177
:10152000AC01C701B6010E94412B20E030E04FE73B
:1015300053E40E94DC290E94B32BCB01D4CF42E0BC
:1015400050E061EB71E082E996E00C94DE01CF930C
:10155000DF93FC0101900020E9F73197AF01481BB0
:10156000590BBC0182E996E00E94DE01EC010E9469
:101570009F0A8C0F9D1FDF91CF9108953F924F924C
:101580005F926F927F928F929F92AF92BF92CF9213
:10159000DF92EF92FF920F931F93CF93DF936A0135
:1015A00079014B015C01820E931EA11CB11C892C98
:1015B0009A2CAB2CBB242401672F782F892F9927D5
:1015C000EB0110E000E0C415D50578F50E9419067E
:1015D000882309F45FC00E940D0780E697E00E940F
:1015E000D20582E00E94D7058D2F0E94D7058C2F4F
:1015F0000E94D70580E00E94D705312C3601600E8D
:10160000711EF301E30DF11D80810E94D70581E079
:10161000830D9FEF391207C0139580E697E00E9473
:10162000CD052196D0CF382EECCF0E151F0568F5CD
:101630000E941906882371F10E940D0780E697E049
:101640000E94D20582E00E94D705892D0E94D7050D
:10165000882D0E94D70580E00E94D705B12CE701B4
:10166000C01BD10B8B2D90E0C817D90750F08C0D03
:101670009D1DFC01E00FF11F80810E94D705B394EE
:10168000F1CF80E697E00E94CD050E94050681110A
:10169000FCCF8701C801DF91CF911F910F91FF907F
:1016A000EF90DF90CF90BF90AF909F908F907F9002
:1016B0006F905F904F903F9008950E94A40660E065
:1016C00070EF8FEF9FEF0E94190727E530E041EFA1
:1016D00054E060E070EF8FEF9FEF0E94BE0A0C9421
:1016E000E1050F931F93CF93DF938C01D0E0C0E00F
:1016F000F801EC0FFD1F6491662341F082E996E04A
:101700000E947402892B11F02196F2CF0E949F0A49
:101710008C0F9D1FDF91CF911F910F9108952F92F4
:101720003F924F925F926F927F928F929F92AF9271
:10173000BF92CF92DF92EF92FF920F931F93CF93BE
:10174000DF9300D000D0CDB7DEB77C01FC018081F3
:10175000833261F48481803549F48581813231F4AA
:1017600064EF71E080E090E00E94CF03C7010E9427
:10177000A70A2091B9033091BA03F7018081232B86
:1017800009F440C0833239F58481803521F58185A3
:10179000813209F521812053330B44E6429FC00179
:1017A000439F900D11242281FAE02F9F800D911DFF
:1017B0001124805E9140F70123812053330B820F67
:1017C000931F9093B8038093B703892B21F4109251
:1017D000BA031092B9030F900F900F900F90DF9102
:1017E000CF911F910F91FF90EF90DF90CF90BF901E
:1017F000AF909F908F907F906F905F904F903F90B1
:101800002F900895833209F04CC18481803509F00E
:101810004BC18581833509F0FCC08681833409F092
:1018200043C187818B3409F03FC181818053990B7B
:1018300034E6389FA001399F500D11245A83498303
:1018400082818053990B2AE0289FA001299F500D87
:10185000112469817A81640F751F83818053990BEC
:10186000680F791F7A8369837093B8036093B70315
:101870006630710508F0AFCF81858053990B389F92
:101880008001399F100D112482858053990B289F68
:10189000A001299F500D1124040F151F838580532B
:1018A000990B080F191F0F3711050CF094CF808585
:1018B0009CE0969F9001979F300D1124F901EB5DFC
:1018C000FE4F6F0182809380A480B5808B3209F037
:1018D00065C0CB01880F991F9C01265C3A4F7901A6
:1018E000F90160817181072E000C880B990B0E9411
:1018F0007D299B01AC01C501B4010E94D42A4B0192
:101900005C01B801012E000C880B990B0E947D2907
:101910009B01AC01C501B4010E94D52AF601628386
:10192000738384839583F701118300832CE04981BD
:101930005A81249FC001259F900D1124BC016B5D2D
:101940007E4F7A836983FB016281738184819581F3
:101950000E94BA2BE981FA81718360838FE692E15C
:10196000A3E8BAE380879187A287B3870F900F908F
:101970000F900F90DF91CF911F910F91FF90EF90FB
:10198000DF90CF90BF90AF909F908F907F906F909F
:101990005F904F903F902F900C945D0B8D3231F6FD
:1019A0002CE049815A81249FC001259F900D11246C
:1019B000BC016B5D7E4F6B01CA01880F991FFC0152
:1019C000E65CFA4F7F0160817181072E000C880B65
:1019D000990B0E947D299B01AC01C501B4010E94B5
:1019E000D42A4B015C01B801012E000C880B990B25
:1019F0000E947D299B01AC01C501B4010E94D42A3B
:101A0000F60162837383848395831195019511098F
:101A10008ACF843409F048C08681833509F044C0F8
:101A20008781843509F040C021812053330B44E67F
:101A3000429FC001439F900D11242281FAE02F9F05
:101A4000800D911D1124805E9140F7012381205368
:101A5000330B820F931F9093B8038093B7038630A4
:101A6000910508F0B8CE2CE0289FA001299F500DC9
:101A700011244B5D5E4F5A8349838FE692E1A3E8C0
:101A8000BAE3FA0180879187A287B3876281738165
:101A9000848195810E94BA2BE981FA8171836083E8
:101AA0009ACE8B3709F097CEF70101900020E9F725
:101AB00031974F018E189F081092B8031092B70308
:101AC0001092B6031092B5031092B4031092B303B0
:101AD0001092B2031092B103C090AF03D090B00344
:101AE000B12CA12C90E080E030E020E028153905F1
:101AF00008F053C1F701E20FF31F4081B9016F5F96
:101B00007F4F7C836B834332E9F4EB81FC81EE0DE4
:101B1000FF1D40814035B9F1EB81FC81E815F905E5
:101B200091F1FAE0F89F9001F99F300D1124C9015D
:101B3000C097840F911D2B813C812F5F3F4F3C83C9
:101B40002B83E3CF403531F5EB81FC81EE0DFF1D9A
:101B500040814435C1F06B817C816815790599F02D
:101B60007AE07A9D90017B9D300D11245901E0E3CC
:101B7000AE1AB108A40EB11C2B813C812F5F3F4FE0
:101B80003C832B83E1CF2B813C81215031092F5F96
:101B90003F4FACCF4435D9F710E000E0EB81FC813A
:101BA000EE0DFF1D40814132B1F06B817C818616C4
:101BB000970689F07AE0709F9001719F300D112493
:101BC000890100531109040F111DEB81FC8131962D
:101BD000FC83EB83E3CF0431110510F404E110E042
:101BE0008F3F910509F064C0C501845F9140813D3C
:101BF000974008F056C0003127E2120708F051C0A4
:101C0000C80164E170E00E94FA2B90E080E00E943D
:101C10007B292B013C014AE355E05A83498355E275
:101C2000252E51E0352EE981FA81C190D190FA83B9
:101C3000E983CA0CDB1CF4EFCF16F1E0DF0620F4D9
:101C400044EFC42EDD24D39425ECC21629E0D2063D
:101C500020F034ECC32E39E0D32EF101D182C082C2
:101C600017830683B60190E080E00E947B29F10192
:101C700022813381448155810E94D42AA30192019B
:101C80000E94412BF1016087718782879387FCE076
:101C90002F0E311C26E435E049815A81241735077F
:101CA00011F62B813C81B12CA12C90E080E06FCF0C
:101CB00086309105B0F79501245F3140213D3740D2
:101CC00080F7013167E2160760F7FC01EE0FFF1F96
:101CD000E65CFA4F20813181A20EB31E75ECA71687
:101CE00079E0B70608F04CC02CE0289FF001299F4E
:101CF000F00D1124EB5DFE4FB182A0825CE0589F95
:101D0000F001599FF00D1124EB5DFE4F20813181D0
:101D1000243F314020F424EF31E0318320834CE034
:101D2000489F9001499F300D1124B9016B5D7E4F92
:101D30005B01FB01178306836081718190E080E085
:101D40000E947B29F50122813381448155810E94C3
:101D5000D42A2B013C01C80164E170E00E94FA2BF7
:101D600090E080E00E947B299B01AC01C301B2019D
:101D70000E94412BF501608771878287938791CFFD
:101D80003CE0389FF001399FF00D1124EB5DFE4FD0
:101D900044EC59E051834083B1CF3093B203209398
:101DA000B1039093B8038093B703B092B603A092A7
:101DB000B503D092B003C092AF031092B403109257
:101DC000B30309CDCF93DF93EC010E94A406BE01BB
:101DD000DD0F880B990B29E0660F771F881F991F6D
:101DE0002A95D1F728EA30E045ED53E00E946906D4
:101DF000E5EDF3E090E080E041919C012F5F3F4FE3
:101E00004D3709F045C0FC01EB52FC4F4281405375
:101E1000550B64E6649FC001659F900D11242B5201
:101E20003C4FD9012C912053330B68EE73E0269F71
:101E3000A001279F500D369F500D1124840F951F30
:101E40002381BAE02B9F800D911D1124805E91406B
:101E500024812053330B820F931F9093CE038093E2
:101E6000CD03892F880F880B8093CF038093D003F5
:101E70008093D1038093D2038093D3038093D403C0
:101E800085ED93E00E948F0BDF91CF910C94E105DB
:101E9000C901283A310509F0AFCFF2CFAF92BF9216
:101EA000CF92DF92EF92FF920F931F93CF93DF9326
:101EB00080916D018111A2C00E942704DC019B0169
:101EC000AD0160E070E080E090E0A090C503B090CC
:101ED000C603C090C703D090C803E090C903F09038
:101EE000CA030091CB031091CC030E94CD2CA0908B
:101EF000CD03B090CE03C090CF03D090D003E0903C
:101F0000D103F090D2030091D3031091D4030E9427
:101F1000D62C09F00CF45CC00E942704DC01CB0134
:101F20006093C5039093C603A093C703B093C803FF
:101F30001092C9031092CA031092CB031092CC03E3
:101F40008091C3039091C403892BB9F08091C103A0
:101F50009091C203892B89F481E080936D0184EB19
:101F600091E0DF91CF911F910F91FF90EF90DF9063
:101F7000CF90BF90AF900C94A70A8091BF0390912F
:101F8000C0030E94E20E2091BD033091BE03409138
:101F9000BB035091BC038091BF039091C0032417F1
:101FA00035073CF548175907F1F43093C0032093E7
:101FB000BF038091C3039091C403892B49F08091A2
:101FC000C1039091C20301979093C2038093C10310
:101FD000DF91CF911F910F91FF90EF90DF90CF9005
:101FE000BF90AF90089501969093C0038093BF0374
:101FF000EFCF48175907C9F20197F6CF8AE08093CF
:10200000CD031092CE031092CF031092D003109202
:10201000D1031092D2031092D3031092D403D8CFDD
:10202000FC0180819181009711F00C94872D089517
:102030000F931F938CEB92E09093C7058093C60596
:102040000E94270400915C0510915D0520915E05BA
:1020500030915F05601B710B820B930B633371052D
:102060008105910508F4C4C00E94270460935C05B3
:1020700070935D0580935E0590935F0585E10E94F6
:10208000980381309240C4F184E10E949803811545
:10209000924094F52091C6053091C7058091C60500
:1020A0009091C7051F921F9224523A4F3F932F934E
:1020B0001F9227E02F931F921F9284529A4F9F9353
:1020C0008F931F9286E08F9380EC91E09F938F9384
:1020D0008DEC95E09F938F930E94F52E8DB79EB760
:1020E00040960FB6F8949EBF0FBE8DBF8DEC95E065
:1020F0001F910F910C94A70A85E10E949803811506
:1021000092400CF43FC085E10E94980381159240F3
:102110000CF06EC084E10E949803813092400CF470
:1021200067C02091C6053091C7054091C605509102
:10213000C7051F921F928CED95E0BC01621B730BCB
:102140009B013F936F931F9227E02F931F921F9243
:10215000841B950B9F938F931F9286E08F9380EC47
:1021600091E09F938F938DEC95E09F938F930E94C6
:10217000F52E8DB79EB740960FB6F8949EBF0FBE52
:102180008DBFB4CF84E10E949803811592400CF07A
:10219000BACF4091C6055091C7058091C605909170
:1021A000C7051F921F922CED35E0241B350B3F9382
:1021B0002F931F9227E02F931F921F9284529A4FC2
:1021C0009F938F931F9286E08F9380EC91E09F9373
:1021D0008F938DEC95E09F938F930E94F52E8DB792
:1021E0009EB740960FB6F8949EBF0FBE8DBF7ECFB0
:1021F0001F910F910895FC0124813581FB014481D9
:10220000558124173507E1F4FC0180819181FB01A0
:10221000608171810097D1F061157105A1F4232BC4
:10222000C1F0FC01808190E008C0232B91F0FB01FC
:10223000808190E091958195910921E0892B09F0A9
:1022400020E0822F08950E94D62EF7CF61157105E8
:1022500061F721E0F6CF0F931F93CF93DF93EC014B
:1022600088819981009759F02A813B812617370789
:1022700030F081E0DF91CF911F910F9108958B0194
:102280006F5F7F4F0E94102E009759F099838883CB
:102290001B830A832C813D81232B59F7FC0110827B
:1022A000E8CF80E0E7CFEF92FF920F931F93CF9399
:1022B000DF93EC017B018A01BA010E942B11288176
:1022C0003981811114C02115310519F0C9010E940D
:1022D000872D198218821D821C821B821A82CE01D0
:1022E000DF91CF911F910F91FF90EF9008951D8383
:1022F0000C83B701C9010E94DF2EF1CF50E040E00E
:1023000063EB71E00C945311FC0111821082138273
:10231000128215821482F7E089369F0769F0609176
:10232000690770916A076115710531F040916D0779
:1023300050916E070C9453110895FC011182108284
:102340001382128215821482FB0101900020E9F7AA
:102350003197AF01461B570B0C945311BF92CF928C
:10236000DF92EF92FF920F931F93CF93DF9300D0F2
:10237000CDB7DEB782E0D82E01E093E0C92E24E08D
:10238000B22E82E996E00E943C02892B09F4A1C09A
:1023900082E996E00E941A02182F809383048091AC
:1023A0008204811196C080918104811115C01C3373
:1023B00009F04AC0B09281040E94270460937D0412
:1023C00070937E0480937F049093800400931106A1
:1023D0008FE697E00E947E1119831A82E0907307BE
:1023E000F09074078FEFE81AF80AB7018FE697E0CC
:1023F0000E942B11882399F020916F07309170076C
:102400008091730790917407BE016F5F7F4F820FB9
:10241000931F0E94DF2EF0927407E0927307809161
:102420008104843009F51E3311F4009382048091F5
:10243000730790917407883A910508F4A2CF8FE64C
:1024400097E00E947E119DCF1B3719F4C092810442
:10245000BFCF143219F400938104BACF133209F0BC
:10246000B7CFD0928104B4CF833019F41D37F9F679
:10247000DCCF813039F51132D1F660916F07709160
:1024800070076115710549F0409173075091740709
:1024900089E697E00E945311C8CF80916907909117
:1024A0006A07009711F00E94872D10926A07109218
:1024B000690710926E0710926D0710926C071092C8
:1024C0006B07B3CF823009F0B2CF113209F0AFCF32
:1024D000ACCF0F900F90DF91CF911F910F91FF9094
:1024E000EF90DF90CF90BF9008950E944802811135
:1024F0000C94AE110895CF92DF92EF92FF920F935A
:102500001F9360E08FE00E942E0383E090E001972C
:10251000F1F761E08FE00E942E0383E290E00197E3
:10252000F1F760E08FE00E942E03E7ECF0E06491A9
:10253000EBEDF0E0E491F0E0EE0FFF1FE157FF4F0D
:102540008591949100E412E42FE030E0462F0E9440
:102550006B1B6B017C01C114D104E104F10439F05F
:102560008FEFC81AD80AE80AF80A8FE0F8226AE062
:1025700070E080E090E00E94CF03C701B6010E94A6
:102580007B2920E030E048E652E40E94412B1F9175
:102590000F91FF90EF90DF90CF9008958F929F92D0
:1025A000AF92BF92CF92DF92EF92FF920F931F9361
:1025B000CF93DF9300D000D000D0CDB7DEB78C0131
:1025C00063EE71E00E9499057C0183EE91E0E114D5
:1025D000F10409F044C069EE71E0C8010E94990558
:1025E000892BA9F0F701099526960FB6F894DEBF5E
:1025F0000FBECDBFDF91CF911F910F91FF90EF9054
:10260000DF90CF90BF90AF909F908F9008956FEE26
:1026100071E0C8010E949905892B21F185EF91E0B5
:102620000E94A70AF12CE12C05E211E0F6E0EF167A
:10263000F10484F4F80162817381848195810E94A0
:10264000BA2BF80171836083FFEFEF1AFF0A045F72
:102650001F4FECCF81E080936D018FEF91E00E94DE
:10266000A70AC2CF68E072E0C8010E949905892BD1
:1026700049F1CE0101969F938F938EE092E09F9354
:102680008F931F930F930E94182F0F900F900F900E
:102690000F900F900F90892B01F389819A812CE084
:1026A000289F8001299F100D11240B5D1E4FF801FA
:1026B00062817381848195810E94BA2BF8017183B4
:1026C0006083CBCF6E01F5E0CF0ED11CDF92CF92AD
:1026D0007E0123E0E20EF11CFF92EF9287E192E08F
:1026E0009F938F931F930F930E94182F0FB6F89408
:1026F000DEBF0FBECDBF892B09F452C08D809E80F6
:102700000B811C818CED95E07C01E818F9085801DB
:10271000F4E2AF1AFAEFBF0AFF92EF92BF92AF92C4
:1027200083E292E09F938F9336E7C32E35E0D32E5A
:10273000DF92CF920E94F52EC6010E94A70AFF9257
:10274000EF92BF92AF9282E492E09F938F93DF92D9
:10275000CF920E94F52EC6010E94A70AC8018819CF
:10276000990997FD01969595879591958195910980
:1027700084529A4F9F938F9381E692E09F938F9319
:1027800086E795E09F938F930E94F52E86E795E06C
:102790000E94A70A0FB6F894DEBF0FBECDBF24CFAC
:1027A00061E772E0C8010E949905892B09F463C0B2
:1027B000FF92EF92CE0101969F938F9387E792E06D
:1027C0009F938F931F930F930E94182F0FB6F89427
:1027D000DEBF0FBECDBF892B09F44AC088E790E069
:1027E0000E94710B0E94A406A980BA8065010B2C7F
:1027F000000CEE08FF0889E0CC0CDD1CEE1CFF1C71
:102800008A95D1F793E8892E92E0992E8B819C814D
:102810008A159B056CF128EA30E0A801C701B601D2
:102820000E946906F80180818B3771F481818734B9
:1028300059F4C8010E94A70AFFEFAF1ABF0A22E0AD
:10284000D20EE11CF11CE2CF8A818F9389818F9394
:102850009F928F921F930F930E94F52EC8010E94A2
:10286000A70A0F900F900F900F900F900F90E4CF4A
:102870000E94E105B9CE60E972E0C8010E949905A5
:10288000892BD9F1DF92CF92FF92EF92CE01019680
:102890009F938F9386E992E09F938F931F930F935B
:1028A0000E94182F0FB6F894DEBF0FBECDBF892B44
:1028B00009F49ACE89819A819093BE038093BD03D7
:1028C0002B813C813093BC032093BB034D815E81FF
:1028D0005093C4034093C3035093C2034093C10376
:1028E0009093C0038093BF038217930719F40E944B
:1028F000E20E7ACE10926D0177CE65EA72E0C801E1
:102900000E949905892B09F46FCE81E0809311060E
:102910000E94270460937D0470937E0480937F045B
:102920009093800484E790E00E94710B5DCE8F92BB
:102930009F92AF92BF92CF92DF92EF92FF920F934E
:102940001F93CF93DF93CDB7DEB728970FB6F894D8
:10295000DEBF0FBECDBF80916D01882309F421C178
:102960000E942704009154051091550520915605A9
:1029700030915705601B710B820B930B653171050C
:102980008105910508F40DC10E9427046093540548
:1029900070935505809356059093570580E00E94EB
:1029A00016088F7E482F50E070E060E080E00E94C3
:1029B00071049E012F5F3F4FAE014D5F5F4FBE011F
:1029C0006B5F7F4FCE0107960E943D0989819A81F6
:1029D00002970CF0E6C01F921F9225E0F22EFF92A4
:1029E0003CEDE32EEF921F9247E0A42EAF921F9290
:1029F0001F92FF92EF921F9256E0B52EBF9260ECAD
:102A0000C62E61E0D62EDF92CF920DEC15E01F931B
:102A10000F930E94F52EC8010E94A70A80E00E9431
:102A200016088061482F50E070E060E080E00E946E
:102A3000710460E273E080E090E00E94CF030E94A6
:102A4000B5094C010E94030A0FB6F894DEBF0FBE11
:102A5000CDBF881599050CF455C00E94030A8C015E
:102A60000E94B509801791070CF4AEC00E94510A6C
:102A70008C010E94B509801791070CF092C00E944A
:102A8000510A8C010E94030A801791070CF089C03B
:102A90001F921F9285E0F82EFF928EEE8F931F9269
:102AA00088E08F938CEA92E09F938F930DEC15E072
:102AB0001F930F930E94F52EC8010E94A70A1F9230
:102AC0001F92FF928CED8F931F9297E09F931F921E
:102AD0001F92FF928F931F9286E08F9380EC91E07C
:102AE0009F938F931F930F930E94F52EC8010E940E
:102AF000A70A1F9281E08F931F9284E28F931F9207
:102B00008CE13BC00E94B5094C010E94510A881516
:102B100099050CF0A2CF1F921F92FF928CEE8F931B
:102B20001F9288E08F938CEA92E09F938F931F937C
:102B30000F930E94F52E8DEC95E00E94A70A1F923C
:102B40001F92FF92EF921F92AF921F921F92FF92DD
:102B5000EF921F92BF92DF92CF921F930F930E942A
:102B6000F52E8DEC95E00E94A70A1F9281E08F93CD
:102B70001F9282E18F931F928CE08F9386E992E0FF
:102B80009F938F9386E795E09F938F930E94F52EF6
:102B90000FB6F894DEBF0FBECDBF86E795E00E946A
:102BA000CE1228960FB6F894DEBF0FBECDBFDF91D0
:102BB000CF911F910F91FF90EF90DF90CF90BF903A
:102BC000AF909F908F9008950E94030A8C010E94FD
:102BD000510A801791070CF049CF1F921F9295E080
:102BE000F92EFF928DEE8F931F9288E08F938CEADF
:102BF00092E09F938F930DEC15E01F930F930E942B
:102C0000F52EC8010E94A70A1F921F92FF928CED19
:102C10008F931F9297E09F931F921F92FF928F9323
:102C20001F9286E08F9380EC91E09F938F931F9388
:102C30000F930E94F52EC8010E94A70A1F9281E0FF
:102C40008F931F928BE18F931F9283E196CF0F9307
:102C50001F938AE090E09093C5058093C40580910E
:102C60006D01882309F49DC00E9427040091580536
:102C70001091590520915A0530915B05601B710B2D
:102C8000820B930B633371058105910508F489C0AC
:102C90000E942704609358057093590580935A0544
:102CA00090935B050E947B120E94B32B6093BC053E
:102CB0007093BD058093BE059093BF058091C405B8
:102CC0009091C5054091BC055091BD056091BE0530
:102CD0007091BF05092E000CAA0BBB0B841795073A
:102CE000A607B70709F05DC064E170E080E090E0FE
:102CF0000E94CF038091C4059091C5054091BC0509
:102D00005091BD056091BE057091BF05092E000C64
:102D1000AA0BBB0B84179507A607B70709F041C09C
:102D20001F921F9295E09F938CED8F931F9227E047
:102D30002F931F921F929F938F931F9286E08F93E2
:102D400080EC91E09F938F938DEC95E09F938F9310
:102D50000E94F52E8DEC95E00E94A70A0E94530573
:102D60001F9281E08F931F928BE08F931F9283E0DD
:102D70008F9386E992E09F938F9386E795E09F93E8
:102D80008F930E94F52E8DB79EB74A960FB6F89492
:102D90009EBF0FBE8DBF86E795E01F910F910C94EB
:102DA000CE121F910F9108953F924F925F926F92B2
:102DB0007F928F929F92AF92BF92CF92DF92EF92CB
:102DC000FF920F931F93CF93DF9300D000D0CDB726
:102DD000DEB780918204882329F180917307909156
:102DE00074079A8389838F3F980729F0892B09F00C
:102DF00044C01092D503E981FA81F093AE03E093C9
:102E0000AD0380918104813009F047C085ED93E0E6
:102E10000E94CE1210928204109281048FE697E0F5
:102E20000E947E110E94270480907D0490907E0471
:102E3000A0907F04B0908004681979098A099B09E1
:102E4000693B7B408105910510F0109211060F90AF
:102E50000F900F900F90DF91CF911F910F91FF90E6
:102E6000EF90DF90CF90BF90AF909F908F907F902A
:102E70006F905F904F903F90089560916F077091B1
:102E8000700749815A8185ED93E00E94E62EE98121
:102E9000FA81EB52FC4F1082AECF9EEF980F92302A
:102EA00028F485ED93E00E948F0BB4CF843009F0B5
:102EB000B1CF8091D603843279F58091D7038132E6
:102EC00049F4109239050E945D0B8DEB92E00E944F
:102ED000A70AA0CFE9EFF4E081E4DF011D928A9513
:102EE000E9F766ED73E0CF010E94DF2EE5EDF3E038
:102EF00001900020E9F7E65DF340EF50FB4F1682AA
:102F000088E3809339050E945D0B80ED92E00E947A
:102F1000A70A89EF94E0DBCF873409F07BCF80915B
:102F2000DB03833209F076CF2091D703022E000C09
:102F3000330B2053310948EE53E0249FC001259FF5
:102F4000900D349F900D11242091D803022E000C77
:102F5000330B2053310944E6429F4001439F900CBC
:102F60001124880D991D2091D903022E000C330BDA
:102F7000205331094AE0429F4001439F900C1124A5
:102F8000880D991D8090DA03082C000C9908B0E395
:102F90008B1A9108880E991E992D990F990B9401FF
:102FA000492F592F692F792F892F2F30374241050B
:102FB0005105610571058105910511F00CF02ACFCD
:102FC0008BE78093D5038DE7E981FA81EC52FC4FC2
:102FD00080830E94A406C401990CAA0BBB0B2C0190
:102FE0003D0119E0440C551C661C771C1A95D1F75D
:102FF0004C015D01BB0C8808982C54019C01AD016B
:10300000682D782D882D982D09E00E94B42C3E70F3
:1030100020E040E050E060E070E080E090E0A0E080
:103020000E94DF2C69F4D301C2019F70AA27BB273D
:10303000892B8A2B8B2B21F4C301B2010E94190723
:10304000912C812C90E080E068EE73E0A4E6BAE079
:10305000FC01EB52FC4F2081222309F444C02435AB
:1030600009F03FC0FC01EA52FC4F4081042E000CE5
:10307000550B40535109469F9001479F300D569F75
:10308000300D1124FC01E952FC4FE0810E2E000CA2
:10309000FF0BF097AE9FA001AF9F500D1124240F9E
:1030A000351FFC01E852FC4FE0810E2E000CFF0B97
:1030B000F097BE9FA001BF9F500D1124420F531FD8
:1030C000FC01E752FC4F2081022E000C330B2053F1
:1030D0003109240F351F821693060CF4490104961A
:1030E000B7CF0196B5CF392C330C330889819A813B
:1030F00004969C838B839093AE038093AD038F5291
:103100009C4F9A83898388EEA82E93E0B92EC12C18
:10311000D12CE12CF12C00E010E09401432D532D33
:10312000632D732D832D932D0E94162C205DA98174
:10313000BA812C93EB81FC81EE52FC4FFA83E98338
:103140009401432D532D632D732D832D932D0E94B8
:10315000142CE4E6AE2EB12C0E94162C205DA98121
:10316000BA812C93EB81FC81ED52FC4FFA83E98309
:103170009401432D532D632D732D832D932D0E9488
:10318000142CFAE0AF2E0E94162C205DA981BA8182
:103190002C93EB81FC81EC52FC4FFA83E983940180
:1031A000432D532D632D732D832D932D0E94142CAD
:1031B000205DA981BA812C93EB81FC81EB52FC4FFD
:1031C00010822B813C8145ED53E0C301B2010E9486
:1031D000BE0A0E94E10581EE92E079CE1F920F9225
:1031E0000FB60F9211242F933F934F935F936F93DA
:1031F0007F938F939F93AF93BF93EF93FF9382E956
:1032000096E00E945202FF91EF91BF91AF919F9182
:103210008F917F916F915F914F913F912F910F907F
:103220000FBE0F901F9018951F920F920FB60F921E
:1032300011242F938F939F93EF93FF93E091A20616
:10324000F091A3068081E091A806F091A90682FD85
:103250001BC090818091AB068F5F8F732091AC066D
:10326000821741F0E091AB06F0E0EE56F94F958FF2
:103270008093AB06FF91EF919F918F912F910F90CB
:103280000FBE0F901F9018958081F4CF1F920F9260
:103290000FB60F9211242F933F938F939F93AF9369
:1032A000BF938091E9049091EA04A091EB04B0915E
:1032B000EC043091E80423E0230F2D3758F50196F4
:1032C000A11DB11D2093E8048093E9049093EA04C2
:1032D000A093EB04B093EC048091ED049091EE0484
:1032E000A091EF04B091F0040196A11DB11D80934F
:1032F000ED049093EE04A093EF04B093F004BF911B
:10330000AF919F918F913F912F910F900FBE0F9092
:103310001F90189526E8230F0296A11DB11DD2CF4C
:103320001F920F920FB60F9211242F933F934F933A
:103330005F936F937F938F939F93AF93BF93CF933D
:10334000DF93EF93FF938091E704C0915F07D0E094
:1033500087FF24C010928500109284008091E704BA
:103360008F5F8093E7048091E704082E000C990B8F
:103370008C179D0724F48091E7048C30C4F1809170
:10338000840090918500049680349C4908F47AC0AA
:103390008091840090918500049676C08091E70426
:1033A000082E000C990B8C179D07C4F6E091E704DA
:1033B0008E2FEE0F990BFC01EE0FFF1FE80FF91F88
:1033C000E55CF84F808186FFC9CFE091E7048E2F3E
:1033D000EE0F990BFC01EE0FFF1FE80FF91FE55CE4
:1033E000F84F808160E08F730E942E03B7CF209149
:1033F000840030918500E091E7048E2FEE0F990B49
:10340000FC01EE0FFF1FE80FF91FE55CF84F81810B
:103410009281820F931F9093890080938800E0919E
:10342000E7048E2FEE0F990BFC01EE0FFF1FE80F44
:10343000F91FE55CF84F808186FF11C0E091E70439
:103440008E2FEE0F990BFC01EE0FFF1FE80FF91FF7
:10345000E55CF84F808161E08F730E942E03FF913D
:10346000EF91DF91CF91BF91AF919F918F917F911C
:103470006F915F914F913F912F910F900FBE0F90E1
:103480001F90189580E49CE99093890080938800B0
:103490008FEF8093E704E3CF1F920F920FB60F9246
:1034A00011242F933F934F935F936F937F938F9349
:1034B0009F93AF93BF93EF93FF938091B900887F61
:1034C000803609F44AC0F0F5883209F4A7C018F52F
:1034D000803109F49BC0B8F4882309F4F9C088301E
:1034E00009F494C0FF91EF91BF91AF919F918F919B
:1034F0007F916F915F914F913F912F910F900FBEF0
:103500000F901F901895883109F488C0803251F7C8
:1035100080933C0614C0803409F49DC040F480338D
:10352000B9F38833F9F680933C0685ECB0C080355A
:1035300009F485C0883509F496C0883499F60E944C
:103540009904D0CF883909F48CC038F5883729F030
:1035500050F4883611F0803729F683E080933E06D8
:103560001092E60457C0883809F47BC0803919F0FE
:10357000803809F0B7CF8091E604803208F071C03E
:10358000E091E60481E08E0F8093E6048091BB0019
:10359000F0E0EA53FB4F80833DC0803B39F0E0F41C
:1035A000803A09F479C0883A09F09CCF84E080938E
:1035B0003E061092C5041092C404E0911406F091E6
:1035C000150609958091C40481110FC081E0809394
:1035D000C4041092A40409C0803C09F4A6CF883C1E
:1035E00009F4A3CF883B09F07DCFE091C50481E0C9
:1035F0008E0F8093C504F0E0EC55FB4F80818093E3
:10360000BB009091C5048091C40429C08091190623
:103610008093BB0085EC8093BC0064CF90913B0607
:1036200080913A06981758F5E0913B0681E08E0F9D
:1036300080933B06F0E0E65EF94F8081E9CFE091B0
:103640003B0681E08E0F80933B068091BB00F0E04B
:10365000E65EF94F808390913B0680913A06981779
:10366000C8F285E8D8CFE0913B0681E08E0F8093C9
:103670003B068091BB00F0E0E65EF94F80838091CD
:103680003D0681115CCF81E08093180684EA809327
:10369000BC0010923E0626CF85EC8093BC001092B1
:1036A0003E068091E604803230F4E091E604F0E0DA
:1036B000EA53FB4F10826091E60470E0E09112063D
:1036C000F091130686EC94E009951092E6040ACF77
:1036D00010923C0634CFCF92DF92EF92FF920F937D
:1036E0001F93E82FF92F05C0015011092109310955
:1036F00061F1908196239417B9F305C00150110927
:103700002109310911F1908196239413F7CFC12C2F
:10371000D12CE12CF12C0AC08FEFC81AD80AE80A84
:10372000F80A0C151D052E053F0579F080818623CA
:10373000841791F36C2D7D2D8E2D9F2D1F910F9150
:10374000FF90EF90DF90CF90089560E070E080E010
:1037500090E01F910F91FF90EF90DF90CF90089530
:10376000109295061092940688EE93E0A0E0B0E0E7
:103770008093960690939706A0939806B093990627
:1037800027E831E0309393062093920625EC30E051
:1037900030939F0620939E0624EC30E03093A106E0
:1037A0002093A00620EC30E03093A3062093A206DD
:1037B00021EC30E03093A5062093A40622EC30E003
:1037C0003093A7062093A60626EC30E03093A90696
:1037D0002093A8061092AB061092AC061092AD068C
:1037E0001092AE0610923207109231078093330781
:1037F00090933407A0933507B093360789E991E099
:103800009093300780932F0710928A0786EF90E0FD
:1038100090938E0780938D0781E090E090938C07C2
:1038200080938B07E5E7F7E027E837E04FEF68EB99
:103830007BE080915F078C3040F591E0980F90938A
:103840005F07808390E0DC01AA0FBB1FA80FB91FA0
:10385000A55CB84F12967C936E93119733962E17F2
:103860003F0739F763EB71E08FE697E00E949D1107
:1038700063EB71E089E697E00E949D118BEA91E08D
:10388000909361078093600708954083E7CFCF93BB
:10389000DF93CDB7DEB76B970FB6F894DEBF0FBEE0
:1038A000CDBF789484B5826084BD84B5816084BDC9
:1038B00085B5826085BD85B5816085BD80916E00CE
:1038C000816080936E0010928100809181008260FF
:1038D000809381008091810081608093810080913C
:1038E00080008160809380008091B100846080932B
:1038F000B1008091B00081608093B00080917A0027
:10390000846080937A0080917A00826080937A004C
:1039100080917A00816080937A0080917A0080683B
:1039200080937A001092C100E091A206F091A30664
:1039300082E08083E0919E06F0919F061082E091E4
:10394000A006F091A10680E180831092AA06E09182
:10395000A606F091A70686E08083E091A406F09188
:10396000A506808180618083E091A406F091A50680
:10397000808188608083E091A406F091A506808113
:1039800080688083E091A406F091A50680818F7DF8
:1039900080830E94A40627E530E041EF54E060E018
:1039A00070EF8FEF9FEF0E9469060E94E105809102
:1039B000460590914705C897F1F010923B0510928B
:1039C0003A0510923D0510923C0510923F05109269
:1039D0003E05109241051092400510924305109249
:1039E0004205109245051092440588E390E09093BB
:1039F00047058093460561E08DE00E945C0361E02D
:103A00008DE00E942E0361E084E00E945C0360E090
:103A100084E00E942E0361E084E00E942E0364E6AD
:103A200070E080E090E00E94CF0360E084E00E94BC
:103A30002E0364E670E080E090E00E94CF0361E036
:103A400084E00E942E0364E670E080E090E00E9433
:103A5000CF0360E084E00E942E0364E670E080E023
:103A600090E00E94CF0361E084E00E942E0364E6B0
:103A700070E080E090E00E94CF0360E084E00E946C
:103A80002E0364E670E080E090E00E94CF03809116
:103A90003905883321F489EF94E00E94CE1289E23F
:103AA000809389078FE297E0909388078093870738
:103AB0000E9443081092100610920F0610920E06F4
:103AC00010920D0680E880937305809372058093B1
:103AD0007105809370051092C7051092C60510926B
:103AE0006F0510926E0510926B0510926A05109288
:103AF0006D0510926C051092690510926805109280
:103B0000B7051092B8051092B9051092BA05109237
:103B10005C0510925D0510925E0510925F05109293
:103B200058051092590510925A0510925B05109293
:103B30005405109255051092560510925705109293
:103B4000C8051092C9051092CA051092CB051092B3
:103B5000C0051092C1051092C2051092C3051092C3
:103B60005005109251051092520510925305109273
:103B7000BC051092BD051092BE051092BF051092B3
:103B8000C5051092C4051092CC051092BB0581E0CA
:103B90008093B60510924F0510924E0580E590E097
:103BA00090934D0580934C0589E690E090934B05EA
:103BB00080934A0582E890E09093490580934805F8
:103BC000109274051092750560ED77E080E090E04A
:103BD0000E94CF0380913905883309F4C6C0009153
:103BE0003A0510913B0504521A4FB801012E000C02
:103BF000880B990B0E947D296093270170932801FF
:103C00008093290190932A011093260100932501A6
:103C100010922D0110922E0110922F01109230015E
:103C200000913C0510913D0504521A4FB801012E38
:103C3000000C880B990B0E947D29609333017093CF
:103C40003401809335019093360110933201009333
:103C500031011092390110923A0110923B011092F9
:103C60003C0100913E0510913F0504521A4FB801E6
:103C7000012E000C880B990B0E947D2960933F0157
:103C800070934001809341019093420110933E0153
:103C900000933D0110924501109246011092470198
:103CA00010924801009140051091410504521A4FAD
:103CB000B801012E000C880B990B0E947D2960939E
:103CC0004B0170934C0180934D0190934E011093E2
:103CD0004A01009349011092510110925201109231
:103CE0005301109254010091420510914305045272
:103CF0001A4FB801012E000C880B990B0E947D29E8
:103D000060935701709358018093590190935A0121
:103D1000109356010093550110925D0110925E01BF
:103D200010925F01109260010091440510914505C9
:103D300004521A4FB801012E000C880B990B0E94F7
:103D40007D29609363017093640180936501909372
:103D50006601109362010093610110926901109253
:103D60006A0110926B0110926C0124E7C22E21E0CF
:103D7000D22E35E2E32E31E0F32E05E717E04CE0DA
:103D8000B42E52E0A52ED8018C918C3008F054C08E
:103D9000F601908061E0892D0E945C03D8018C912E
:103DA000282F30E0F901EE0FFF1FE20FF31FE55C53
:103DB000F84F292D2F739081907C922B9083119630
:103DC0001C92119712961C926B2D0E94EE2B8B9DCC
:103DD000A001112430E020E0BA01620F731FFB0143
:103DE000EE0FFF1FE60FF71FE55CF84F908196FD81
:103DF00015C02F5F3F4F2C30310571F781110EC078
:103E000010928000A0928100109285001092840090
:103E1000B19A80916F00826080936F00D801EC911D
:103E20008E2F90E0FC01EE0FFF1FE80FF91FE55CFD
:103E3000F84F808180648083F70160817181C801BF
:103E40000E9433040D5F1F4FFCE0EF0EF11C2FEFBB
:103E5000C21AD20A37E00738130709F094CF64EF8B
:103E600071E080E090E00E94CF03E2ECF0E0E491AA
:103E7000E0937E06E6EDF0E0E491F0E0EE0FFF1F48
:103E8000EB57FF4F859194919093800680937F0626
:103E9000E5ECF0E0E491E0938106E9EDF0E0E491F7
:103EA000F0E0EE0FFF1FEB57FF4F85919491909339
:103EB000830680938206E8ECF0E0E491E0938406C8
:103EC000ECEDF0E0E491F0E0EE0FFF1FEB57FF4F59
:103ED000859194919093860680938506E3ECF0E0BB
:103EE000E491E0938706E7EDF0E0E491F0E0EE0F77
:103EF000FF1FE157FF4F859194919093890680931E
:103F0000880661E08BE00E945C0361E081E10E9431
:103F10005C0361E08EE00E945C0360E08CE00E9444
:103F20005C0361E08CE00E942E030E9440010E942D
:103F30004F010E943B070E943B0780916506813438
:103F400029F0833719F0893709F060C081E0809348
:103F50008E060BE010E0A7E0CA2ED12CB3E8AB2E02
:103F6000B1E0BB2E7724739465E080E291E00E947B
:103F70000204C6010197F1F70E9440010E944F011F
:103F80000E94CE01C6010197F1F7FAE7EF2EF1E0AA
:103F9000FF2EAE014F5F5F4F4A01D7018D917D012A
:103FA0000E945E01F40181934F01AE14BF04A9F792
:103FB0000E9431018C8180938F0669E087E191E056
:103FC0000E94020465E082E191E00E940204709286
:103FD000900669E089E091E00E94020470929106E7
:103FE00069E080E091E00E9402040E943B0780911A
:103FF0006506893759F0833749F00150110931F0CE
:1040000080918E068F5F80938E06AECF83EE92E016
:104010000E94A70A62E082E00E945C0362E080E105
:104020000E945C0388EF92E00E94A70A61E08FE0A3
:104030000E945C0362E080E10E945C03EDEC4E2E86
:10404000E5E05E2E66E7662E65E0762E7CEA272E9A
:1040500072E0372E80911106882369F00E9467056F
:104060000E94D4160E944E0F0E944802882391F3AA
:104070000E94AE11E7CF0E9467050E94D4160E94ED
:104080004E0F0E9427049B01AC0160E070E080E0CD
:1040900090E0A0906005B0906105C0906205D0905E
:1040A0006305E0906405F090650500916605109148
:1040B00067050E94CD2CA4E10E94DF2C09F00CF4CE
:1040C00089C00E9427048B019C01609360051093B6
:1040D0006105809362053093630510926405109228
:1040E0006505109266051092670525E737E0398B64
:1040F000288B05E211E0D8011896CD90DD90ED9067
:10410000FC901B9720E030E0A901C701B6010E9496
:104110007629882309F452C0F8010190F081E02D3E
:10412000FB8BEA8BBF0190E080E00E947B296C8BC7
:104130007D8B8E8B9F8BD80112962D913D914D9149
:104140005C911597288F398F4A8F5B8F0E94D42AF4
:104150004B015C0120E030E0A9010E94E92B181618
:1041600024F0B7FAB094B7F8B09420E030E0A90199
:10417000C701B6010E94E92BA701960118160CF0A1
:104180005058C501B4010E94762918160CF4EBC0F2
:104190006A897B89888999890E9433042C893D89A1
:1041A0004E895F89D80112962D933D934D935C9370
:1041B0001597F8011086118612861386045F1F4F2B
:1041C000E889F9893396F98BE88BF1E00D361F0702
:1041D00009F091CF809175058111BCC30E9427041D
:1041E000683873418105910508F4B4C30E9427041F
:1041F0000091B7051091B8052091B9053091BA0525
:10420000601B710B820B930B633371058105910564
:1042100008F4A0C30E9427046093B7057093B80503
:104220008093B9059093BA050E943B07809174056D
:10423000811107C280E890E00E949C00882309F465
:10424000A8C087E08F9380ED8F9389E08F9380E6FD
:104250008F931F921F923F922F927F926F920E9494
:10426000F52E86E795E00E948F0B0FB6F894DEBF1F
:104270000FBECDBF80E890E00E94B700882309F40C
:104280008CC11F921F928CE093E09F938F937F923B
:104290006F920E94F52E86E795E00E948F0B0F909B
:1042A0000F900F900F900F900F9080916B0680935E
:1042B000730580916C0680937205809169068093E6
:1042C000710580916A0680937005809173058F3F18
:1042D00069F4809172058F3F49F4809171058F3F99
:1042E00029F4809170058F3F09F434C32091720541
:1042F00080E890E0AC01421B51099A0143E0220F93
:10430000331F4A95E1F730936F0520936E05209196
:104310007005821B910953E0880F991F5A95E1F7A8
:1043200090936D0580936C0580916E0590916F055B
:10433000181619060CF47EC280916E0590916F05D7
:104340008D3E9F4F0CF07DC280916E0590916F0560
:10435000893E93400CF496C288EE93E090936F05EB
:1043600080936E0572C2288D398D4A8D5B8DC70191
:10437000B6010E94D52AD80112966D937D938D9334
:104380009C9315970E94B32B888999890E943304C6
:1043900015CF80E290E00E949C00882341F087E0E6
:1043A0008F9380ED8F9382E08F9388E551CF80E1EA
:1043B00090E00E949C00882361F087E08F9380ED5D
:1043C0008F9382E08F9388E58F931F9281E08F9384
:1043D00042CF80E490E00E949C00882341F087E077
:1043E0008F9380ED8F9389E08F9380E6EDCF80E00F
:1043F00090E10E949C00882359F087E08F9380ED24
:104400008F9389E08F9380E68F931F9282E0DFCFB6
:1044100080E090E40E949C00882351F087E08F9315
:1044200080ED8F9382E08F9398E59F931F92CFCF7B
:1044300080E090E80E949C00882359F087E08F93E9
:1044400080ED8F9382E08F9388E58F931F9283E0B6
:10445000BECF80E090E20E949C00882341F087E07C
:104460008F9380ED8F9389E08F9380E6EECF80E08D
:1044700094E00E949C00882359F087E08F9380EDA0
:104480008F9382E08F9388E58F931F9284E09FCF74
:1044900080E098E00E949C00882341F087E08F93A1
:1044A00080ED8F9389E08F9380E6EECF80E091E0FE
:1044B0000E949C00882359F087E08F9380ED8F93B2
:1044C00082E08F9388E58F931F9285E080CF80E014
:1044D00092E00E949C00882341F087E08F9380ED5A
:1044E0008F9389E08F9380E6EECF88E090E00E9482
:1044F0009C008823C1F087E08F9380ED8F9385E047
:104500008F938CED8F931F928FEF8F933F922F920B
:104510007F926F920E94F52E86E795E00E948F0BA6
:104520000E945305A2CE81E090E00E949C00882367
:1045300009F4A0CE8091740591E0892780937405D9
:1045400080917405882319F11F921F9285E08F9343
:1045500080EF8F931F9288E08F933F922F925F920C
:104560004F920E94F52E8DEC95E00E94A70A68EE0E
:1045700073E080E090E00E94CF030FB6F894DEBFB6
:104580000FBECDBF0E9453050E94530573CE1F92EC
:104590001F9285E08F9381EFDCCF80E290E00E9454
:1045A000B70081116ECE80E190E00E94B7008823B1
:1045B00021F01F9281E08F9366CE80E490E00E940C
:1045C000B7008111F6CF80E090E10E94B700882308
:1045D00019F01F9282E0EFCF80E090E40E94B700D4
:1045E0008111F7CF80E090E80E94B700882319F08E
:1045F0001F9283E0E0CF80E090E20E94B70081113B
:10460000F7CF80E094E00E94B700882319F01F9252
:1046100084E0D1CF80E098E00E94B7008111F7CF0D
:1046200080E091E00E94B700882319F01F9285E096
:10463000C2CF80E092E00E94B700882309F435CE13
:10464000F5CF80E190E00E949C00882329F181E071
:1046500090E09093100680930F061F921F9285E0C2
:104660008F938DED8F931F9288E08F933F922F92BF
:104670005F924F920E94F52E8DEC95E00E94A70A62
:1046800068EE73E080E090E00E94CF030FB6F894EC
:10469000DEBF0FBECDBF09CE80E490E00E949C003B
:1046A000882361F082E090E09093100680930F06DB
:1046B0001F921F9285E08F938EEDD4CF80E890E01B
:1046C0000E949C00882361F083E090E090931006A4
:1046D00080930F061F921F9285E08F938FEDC2CFBC
:1046E00080E290E00E949C00882361F084E090E0EA
:1046F0009093100680930F061F921F9285E08F9370
:1047000080EEB0CF80E090E10E949C00882359F0B9
:1047100085E090E09093100680930F061F921F9201
:104720008F9381EE9FCF80E090E40E949C008823CD
:1047300061F086E090E09093100680930F061F9240
:104740001F9285E08F9382EE8DCF80E090E80E94EB
:104750009C00882361F087E090E09093100680939E
:104760000F061F921F9285E08F9383EE7BCF80E030
:1047700090E20E949C00882361F088E090E0909392
:10478000100680930F061F921F9285E08F9384EE90
:1047900069CF80E094E00E949C00882361F0E9E00A
:1047A000F0E0F0931006E0930F061F921F9285E051
:1047B0008F9385EE57CF80E098E00E949C0088237D
:1047C00061F04AE050E05093100640930F061F92AC
:1047D0001F9285E08F9386EE45CF88E090E00E949F
:1047E0009C00882351F01092100610920F061F9221
:1047F0001F9285E08F938BEE35CF81E090E00E9491
:104800009C00882309F451CD8091740591E089279B
:104810008093740580917405882331F01F921F9254
:1048200085E08F9380EF1ECF1F921F9285E08F93BC
:1048300081EF18CF80916E0590916F0544970CF031
:1048400083CD10926F0510926E0580916C0590914A
:104850006D051816190604F180916C0590916D058F
:104860008D3E9F4FFCF480916C0590916D05893EC3
:1048700093400CF40CC188EE93E090936D05809307
:104880006C0514C080916E0590916F0588319C4F26
:10489000E4F688E19CEF62CD80916C0590916D0506
:1048A00044970CF710926D0510926C0520916A05E3
:1048B00030916B0580916E0590916F05281739072F
:1048C00059F4209168053091690580916C059091AB
:1048D0006D0528173907F1F180916E0590916F05EC
:1048E00090936B0580936A0580916C0590916D059E
:1048F000909369058093680520916C0530916D0552
:1049000080916E0590916F051F921F924CED55E0BE
:10491000421B530B9A013F934F931F9227E02F9313
:104920001F921F9284529A4F9F938F931F9286E0FB
:104930008F9380EC91E09F938F935F924F920E94B0
:10494000F52E8DEC95E00E94A70A0FB6F894DEBF15
:104950000FBECDBFCE0101960E9484110D811E8134
:10496000CE0101960E941010012B09F441C0CE0126
:104970000A960E94841167E173E0CE0101960E94BD
:104980009D11BE016F5F7F4FCE010A960E94FB1002
:10499000182FCE0101960E941010CE010A960E9497
:1049A0001010112309F47EC081E090E0909310066E
:1049B00080930F061F921F9285E08F938DED8F934A
:1049C0001F9288E08F933F922F925F924F920E94A6
:1049D000F52E8DEC95E00E94A70A0FB6F894DEBF85
:1049E0000FBECDBF89E697E00E947E110E9453055D
:1049F00020910F063091100680910D0690910E06C1
:104A00002817390769F180910F069091100690934D
:104A10000E0680930D061F921F9295E09F938CEDDA
:104A20008F931F9227E02F931F921F929F938F9334
:104A30001F9286E08F93A0ECB1E0BF93AF935F929B
:104A40004F920E94F52E8DEC95E00E94A70A88E90E
:104A500093E00E94A70A0FB6F894DEBF0FBECDBF49
:104A6000E0910F06F09110063197EA30F10508F059
:104A7000FBCAE35CFA4D0C940E2C1A290427472735
:104A800026292F29C5277E2821292A2933298091E3
:104A90006C0590916D0588319C4F0CF007CF88E133
:104AA0009CEFEBCECE010A960E94841160E273E087
:104AB000CE0101960E949D11BE016F5F7F4FCE0116
:104AC0000A960E94FB10182FCE0101960E9410102A
:104AD000CE010A960E941010112361F082E090E04E
:104AE0009093100680930F061F921F9285E08F937C
:104AF0008EED65CFCE010A960E94841169E273E0C3
:104B0000CE0101960E949D11BE016F5F7F4FCE01C5
:104B10000A960E94FB10182FCE0101960E941010D9
:104B2000CE010A960E941010112361F083E090E0FC
:104B30009093100680930F061F921F9285E08F932B
:104B40008FED3DCFCE010A960E94841162E373E09F
:104B5000CE0101960E949D11BE016F5F7F4FCE0175
:104B60000A960E94FB10182FCE0101960E94101089
:104B7000CE010A960E941010112361F084E090E0AB
:104B80009093100680930F061F921F9285E08F93DB
:104B900080EE15CFCE010A960E9484116BE373E07C
:104BA000CE0101960E949D11BE016F5F7F4FCE0125
:104BB0000A960E94FB10182FCE0101960E94101039
:104BC000CE010A960E941010112359F085E090E062
:104BD0009093100680930F061F921F928F9381EE81
:104BE000EECECE010A960E94841164E473E0CE01F9
:104BF00001960E949D11BE016F5F7F4FCE010A9604
:104C00000E94FB10182FCE0101960E941010CE01B9
:104C10000A960E941010112361F086E090E09093B4
:104C2000100680930F061F921F9285E08F9382EEED
:104C3000C6CECE010A960E9484116DE473E0CE01C7
:104C400001960E949D11BE016F5F7F4FCE010A96B3
:104C50000E94FB10182FCE0101960E941010CE0169
:104C60000A960E941010112361F087E090E0909363
:104C7000100680930F061F921F9285E08F9383EE9C
:104C80009ECECE010A960E94841166E573E0CE01A5
:104C900001960E949D11BE016F5F7F4FCE010A9663
:104CA0000E94FB10182FCE0101960E941010CE0119
:104CB0000A960E941010112361F088E090E0909312
:104CC000100680930F061F921F9285E08F9384EE4B
:104CD00076CECE010A960E9484116FE573E0CE0174
:104CE00001960E949D11BE016F5F7F4FCE010A9613
:104CF0000E94FB10182FCE0101960E941010CE01C9
:104D00000A960E941010112361F0A9E0B0E0B09360
:104D10001006A0930F061F921F9285E08F9385EED9
:104D20004ECECE010A960E94841168E673E0CE0151
:104D300001960E949D11BE016F5F7F4FCE010A96C2
:104D40000E94FB10182FCE0101960E941010CE0178
:104D50000A960E941010112361F02AE030E030938F
:104D6000100620930F061F921F9285E08F9386EE08
:104D700026CECE010A960E94841161E773E0CE012F
:104D800001960E949D11BE016F5F7F4FCE010A9672
:104D90000E94FB10182FCE0101960E941010CE0128
:104DA0000A960E941010112351F0109210061092D2
:104DB0000F061F921F9285E08F938BEE00CECE01DF
:104DC0000A960E9484116EE773E0CE0101960E945C
:104DD0009D11BE016F5F7F4FCE010A960E94FB10AE
:104DE000182FCE0101960E941010CE010A960E9443
:104DF0001010112309F4F6CD81E08093750586E843
:104E000093E00E94A70AEECD80916D01882309F4FA
:104E10002BC960E082E00E945C030E940A03892B98
:104E200009F022C90E9453058091B605882309F133
:104E30001F9281E08F931F928BE18F931F9283E1EA
:104E40008F9346E952E05F934F937F926F920E9457
:104E5000F52E86E795E00E94CE120FB6F894DEBFDD
:104E60000FBECDBF8091B60591E089278093B6052E
:104E7000FBC81F9281E08F931F9284E28F931F9251
:104E80008CE18F93E6E9F2E0FF93EF93DECF8CEBBA
:104E900092E09093C7058093C605AEE1B0E0B09371
:104EA000C505A093C4050E9427040091B705109181
:104EB000B8052091B9053091BA05601B710B820BC2
:104EC000930B633371058105910508F4CDC80E94E9
:104ED00027046093B7057093B8058093B905909344
:104EE000BA050E947B120E94B32B6093BC0570939D
:104EF000BD058093BE059093BF058091C405909138
:104F0000C5054091BC055091BD056091BE057091ED
:104F1000BF05092E000CAA0BBB0B2091C6053091D2
:104F2000C705481759076A077B070CF0BDC0809179
:104F3000C6059091C7051F921F9224523A4F3F9386
:104F40002F931F9227E02F931F921F9284529A4F04
:104F50009F938F931F9286E08F93E0ECF1E0FF9395
:104F6000EF935F924F920E94F52E8DEC95E00E9498
:104F7000A70A64EF71E080E090E00E94CF030FB6D3
:104F8000F894DEBF0FBECDBF6FC88CEB92E090935C
:104F9000C7058093C605A4E1B0E0B093C505A09312
:104FA000C4050E9427040091B7051091B80520910F
:104FB000B9053091BA05601B710B820B930B6333FB
:104FC00071058105910508F44FC80E94270460937C
:104FD000B7057093B8058093B9059093BA050E9400
:104FE0007B120E94B32B6093BC057093BD05809328
:104FF000BE059093BF058091C4059091C505409171
:10500000BC055091BD056091BE057091BF0502972A
:10501000092E000CAA0BBB0B481759076A077B0720
:105020004CF58091C6059091C7052091C605309139
:10503000C7051F921F9284529A4F9F938F931F927E
:1050400087E08F931F921F928CED95E0821B930B4C
:105050009F938F931F9286E08F93E0ECF1E0FF9394
:10506000EF935F924F920E94F52E8DEC95E00E9497
:10507000A70A85CF8091C4059091C5054091BC05D4
:105080005091BD056091BE057091BF050296092E35
:10509000000CAA0BBB0B84179507A607B707CCF427
:1050A0002091C6053091C7058091C6059091C7052E
:1050B0001F921F92ACEDB5E0A21BB30B9D013F9375
:1050C000AF931F9227E02F931F921F9284529A4F03
:1050D000BFCF1F921F9295E09F938CED8F931F92ED
:1050E00027E02F931F921F929F938F931F9286E02A
:1050F0008F9380EC91E09F938F93B3CF2CEB32E0B2
:105100003093C7052093C6054EE150E05093C50586
:105110004093C4050E9427040091C0051091C10569
:105120002091C2053091C305601B710B820B930B5C
:10513000633371058105910508F477C00E94270447
:105140006093C0057093C1058093C2059093C30519
:105150000E947B120E94B32B6093BC057093BD0527
:105160008093BE059093BF058091C4059091C505BD
:105170004091BC055091BD056091BE057091BF0581
:10518000092E000CAA0BBB0B481759076A077B07AF
:105190000CF054C064E170E080E090E00E94CF0326
:1051A0000E947B120E94B32B6093BC057093BD05D7
:1051B0008093BE059093BF058091C4059091C5056D
:1051C0004091BC055091BD056091BE057091BF0531
:1051D000092E000CAA0BBB0B481759076A077B075F
:1051E0006CF51F921F9295E09F938CED8F931F9209
:1051F00027E02F931F921F929F938F931F9286E019
:105200008F9380EC91E09F938F935F924F920E94D7
:10521000F52E8DEC95E00E94A70A81E08093BB05F6
:105220000FB6F894DEBF0FBECDBF8091BB058111D4
:105230000C9434200E9418100C9434201092BB055A
:10524000F4CF80916D0181110E9418100E94971473
:105250000C94342080916D0181110E9418100E94DD
:1052600027160C9434208091CC058111E3CF0E9445
:1052700027040091C8051091C9052091CA053091F5
:10528000CB05601B710B820B930B6531710581059A
:10529000910510F40C9434200E9427046093C805F3
:1052A0007093C9058093CA059093CB0560E082E0B6
:1052B0000E945C030E940A03892B11F00C94342095
:1052C00081E08093CC050C94342089E697E00E941D
:1052D00010108FE697E00C94101091110C94492A4D
:1052E000803219F089508550C8F708950E94B82976
:1052F00008F481E00895E89409C097FB3EF4909586
:105300008095709561957F4F8F4F9F4F9923A9F09E
:10531000F92F96E9BB279395F6958795779567952D
:10532000B795F111F8CFFAF4BB0F11F460FF1BC071
:105330006F5F7F4F8F4F9F4F16C0882311F096E904
:1053400011C0772321F09EE8872F762F05C06623B2
:1053500071F096E8862F70E060E02AF09A95660F6B
:10536000771F881FDAF7880F9695879597F9089524
:10537000990F0008550FAA0BE0E8FEEF1616170666
:10538000E807F907C0F012161306E407F50798F0CE
:10539000621B730B840B950B39F40A2661F0232BE7
:1053A000242B252B21F408950A2609F4A140A69563
:1053B0008FEF811D811D08950E94EF290C94632AAF
:1053C0000E94552A38F00E945C2A20F0952311F0A3
:1053D0000C944C2A0C94522A11240C94972A0E9463
:1053E000742A70F3959FC1F3950F50E0551F629F8B
:1053F000F001729FBB27F00DB11D639FAA27F00D2E
:10540000B11DAA1F649F6627B00DA11D661F829F54
:105410002227B00DA11D621F739FB00DA11D621F39
:10542000839FA00D611D221F749F3327A00D611D56
:10543000231F849F600D211D822F762F6A2F112438
:105440009F5750409AF0F1F088234AF0EE0FFF1F6B
:10545000BB1F661F771F881F91505040A9F79E3FC2
:10546000510580F00C944C2A0C94972A5F3FE4F38A
:10547000983ED4F3869577956795B795F795E79518
:105480009F5FC1F7FE2B880F911D9695879597F921
:10549000089599278827089597F99F6780E870E015
:1054A00060E008959FEF80EC089500240A9416169A
:1054B000170618060906089500240A941216130602
:1054C000140605060895092E0394000C11F4882390
:1054D00052F0BB0F40F4BF2B11F460FF04C06F5FAC
:1054E0007F4F8F4F9F4F089557FD9058440F551F82
:1054F00059F05F3F71F04795880F97FB991F61F056
:105500009F3F79F087950895121613061406551FCC
:10551000F2CF4695F1DF08C0161617061806991F38
:10552000F1CF86957105610508940895E894BB272D
:1055300066277727CB0197F908952F923F924F92D4
:105540005F926F927F928F929F92AF92BF92CF9213
:10555000DF92EF92FF920F931F93CF93DF93CDB71C
:10556000DEB7CA1BDB0B0FB6F894DEBF0FBECDBF94
:1055700009942A88398848885F846E847D848C8465
:105580009B84AA84B984C884DF80EE80FD800C816E
:105590001B81AA81B981CE0FD11D0FB6F894DEBF51
:1055A0000FBECDBFED0108955058BB27AA270E941A
:1055B000EC2A0C94632A0E94552A38F00E945C2A37
:1055C00020F039F49F3F19F426F40C94522A0EF47B
:1055D000E095E7FB0C944C2AE92F0E94742A58F3BB
:1055E000BA17620773078407950720F079F4A6F5C8
:1055F0000C94962A0EF4E0950B2EBA2FA02D0B01D9
:10560000B90190010C01CA01A0011124FF27591B07
:1056100099F0593F50F4503E68F11A16F040A22F0D
:10562000232F342F4427585FF3CF4695379527957E
:10563000A795F0405395C9F77EF41F16BA0B620B7D
:10564000730B840BBAF09150A1F0FF0FBB1F661FC4
:10565000771F881FC2F70EC0BA0F621F731F841F07
:1056600048F4879577956795B795F7959E3F08F02D
:10567000B0CF9395880F08F09927EE0F97958795EF
:1056800008950E94552B0C94632A0E945C2A58F0BE
:105690000E94552A40F029F45F3F29F00C944C2ACF
:1056A00051110C94972A0C94522A0E94742A68F380
:1056B0009923B1F3552391F3951B550BBB27AA27CB
:1056C00062177307840738F09F5F5F4F220F331F05
:1056D000441FAA1FA9F335D00E2E3AF0E0E832D0CD
:1056E00091505040E695001CCAF72BD0FE2F29D0D0
:1056F000660F771F881FBB1F261737074807AB07A2
:10570000B0E809F0BB0B802DBF01FF2793585F4F16
:105710003AF09E3F510578F00C944C2A0C94972A4D
:105720005F3FE4F3983ED4F3869577956795B795F8
:10573000F7959F5FC9F7880F911D9695879597F903
:105740000895E1E0660F771F881FBB1F621773077C
:105750008407BA0720F0621B730B840BBA0BEE1F91
:1057600088F7E09508950E94BA2B6894B1110C94C3
:10577000972A08950E947C2A88F09F5798F0B92FA5
:105780009927B751B0F0E1F0660F771F881F991F76
:105790001AF0BA95C9F714C0B13091F00E94962A58
:1057A000B1E008950C94962A672F782F8827B85F68
:1057B00039F0B93FCCF3869577956795B395D9F7CE
:1057C0003EF490958095709561957F4F8F4F9F4FD8
:1057D00008950E94B82908F48FEF0895991B79E085
:1057E00004C0991F961708F0961B881F7A95C9F771
:1057F00080950895AA1BBB1B51E107C0AA1FBB1FC0
:10580000A617B70710F0A61BB70B881F991F5A954C
:10581000A9F780959095BC01CD010895EE0FFF1F6B
:105820000590F491E02D0994689401C0E894F92F53
:10583000F12B12F00C94482CA0E0B0E0E2E2FCE284
:105840000C94A32A092E059422F40E94A42C11235F
:1058500092F4F0E80F26FFEFE094F0940095109595
:10586000B094C094D094A194BF0ACF0ADF0AEF0A83
:10587000FF0A0F0B1F0B0E94532C07FC0E94A42C45
:10588000CDB7DEB7ECE00C94BF2A689401C0E89471
:105890008F929F92CF93DF930E94532CDF91CF91F1
:1058A0009F908F90089588249924F401E401B0E436
:1058B0009F93AA279A158B049C04ED05FE05CF053E
:1058C000D007A10798F4AD2FDC2FCF2FFE2FE92DA5
:1058D000982C892E982F872F762F652F542F432FA2
:1058E000322F2227B85031F7BF9127C01B2EBF910E
:1058F000BB27220F331F441F551F661F771F881FAA
:10590000991F881C991CEE1FFF1FCC1FDD1FAA1FAB
:10591000BB1F8A149B04EC05FD05CE05DF05A0071F
:10592000B10748F08A189B08EC09FD09CE09DF0988
:10593000A00BB10B21601A94E1F62EF49401AF0193
:10594000BE01CD01000C08956095709580959095ED
:1059500030954095509521953F4F4F4F5F4F6F4F7A
:105960007F4F8F4F9F4F0895002E083090F0982F53
:10597000872F762F652F542F432F322F2227085041
:10598000F4CF220F331F441F551F661F771F881F38
:10599000991F0A95B2F7002D08952A193B094C0961
:1059A0005D096E097F09800B910B08952A153B054F
:1059B0004C055D056E057F0580079107089500245D
:1059C000A7FD00942A1730054005500560057005B5
:1059D0008005900508950F931F93CF93DF93823036
:1059E000910510F482E090E0E0919107F091920728
:1059F00030E020E0B0E0A0E0309799F421153105C7
:105A000009F44AC0281B390B24303105D8F58A81A6
:105A10009B816115710589F1FB0193838283FE01EE
:105A200011C0408151810281138148175907E0F06C
:105A30004817590799F4109761F012960C93129732
:105A400013961C933296CF01DF91CF911F910F9146
:105A500008950093910710939207F4CF2115310513
:105A600051F04217530738F0A901DB019A01BD013B
:105A7000DF01F801C1CFEF01F9CF90939207809336
:105A80009107CDCFFE01E20FF31F81939193225036
:105A9000310939832883D7CF20918F073091900720
:105AA000232B41F4209170013091710130939007C4
:105AB00020938F0720916E0130916F0121153105E0
:105AC00041F42DB73EB74091720150917301241BF0
:105AD000350BE0918F07F0919007E217F307A0F4E0
