:100000000C9471000C9499000C9499000C94990034
:100010000C9499000C9499000C9499000C949900FC
:100020000C9499000C9499000C9499000C944B0F2B
:100030000C9499000C9499000C9499000C949900DC
:100040000C94010F0C9499000C94CF0E0C94A90EF3
:100050000C9499000C9499000C9499000C949900BC
:100060000C9499000C9499006364696E6F707375B9
:1000700078585B004100596F757220416374696F55
:100080006E3A0000000008000201000003040700AF
:1000900000000000000000000000002300260029EE
:1000A0000000000000250028002B000000000024B4
:1000B0000027002A000102040810204080010204E9
:1000C000081020010204081020040404040404049D
:1000D00004020202020202030303030303004C10A2
:1000E000FE2111241FBECFEFD8E0DEBFCDBF13E04D
:1000F000A0E0B1E0EEEAF9E502C005900D92A0366D
:10010000B107D9F726E0A0E6B3E001C01D92A93DF2
:10011000B207E1F710E0C0E7D0E004C02197FE018C
:100120000E941125CF36D107C9F70E94C3100C9445
:10013000CA2C0C940000BC012091D4053091D50547
:100140004091D6055091D70542275327482357237E
:1001500091E0452B09F490E0209530952623372334
:1001600081E0232B09F480E089230895CF93DF9366
:1001700090E080E030E020E0E8EEF3E0A4E6BAE0D2
:10018000E901C054DB4F4881442309F448C0443599
:1001900009F042C0E901CF53DB4F6881062E000C05
:1001A000770B605371096E9FA0016F9F500D7E9F6A
:1001B000500D1124E901CE53DB4F6881062E000C4F
:1001C000770B60537109A69FE001A79FD00D112402
:1001D0004C0F5D1FE901CD53DB4F6881062E000CEB
:1001E000770B60537109B69FE001B79FD00D1124C2
:1001F0004C0F5D1FE901CC53DB4F6881062E000CCC
:10020000770B60537109460F571F841795070CF43D
:10021000CA012C5F3F4FB4CF2F5F3F4FB1CFDF916B
:10022000CF9108959FB7F894AEEBB5E09196ED911C
:10023000FC919297808190962C91822B80839FBF16
:1002400008959FB7F894AEEBB5E05E96ED91FC9102
:100250005F9780815D962C91822B80839FBF08954C
:100260009FB7F894AEEBB5E05B96ED91FC915C978F
:1002700080815A962C91822B80839FBF08958F9204
:100280009F92AF92BF92CF92DF92EF92FF920F9325
:100290001F93CF93DF93D0E0C0E0D12C082F880FBD
:1002A000110B8BE0E82EF12C812C912C54018394BE
:1002B000CC2EC8010C2E02C0959587950A94E2F7C2
:1002C00080FF3FC00E9421018FB7F894E091D905CB
:1002D000F091DA0520819091D80590959223908332
:1002E0008FBFC7010197F1F7E091E205F091E305B7
:1002F00080819091E105892351F0D501C40104C0AA
:10030000880F991FAA1FBB1FCA94D2F7D82A0E9430
:1003100030012196C830D10559F60E94210187E0AD
:1003200090E00197F1F78D2DDF91CF911F910F9103
:10033000FF90EF90DF90CF90BF90AF909F908F9005
:1003400008959FB7F894E091DC05F091DD052081D8
:100350008091DB058095822380839FBFB5CF9FB7B7
:10036000F894AEEBB5E09196ED91FC9192972081D7
:1003700090968C918095822380839FBF0895BC01C5
:100380002091D6053091D7054091D4055091D505DF
:10039000422753274823572391E0452B09F490E047
:1003A000209530952623372381E0232B09F480E024
:1003B00089230895AF92BF92CF92DF92EF92FF927E
:1003C0000F931F93CF93DF936C017B018B01040F7D
:1003D000151FEB015E01AE18BF08C017D10759F019
:1003E0006991D601ED91FC910190F081E02DC6015B
:1003F0000995892B79F7C501DF91CF911F910F9155
:10040000FF90EF90DF90CF90BF90AF900895FC01E8
:10041000538D448D252F30E0842F90E0821B930B69
:10042000541710F0CF96089501970895FC01918D0F
:10043000828D981761F0A28DAE0FBF2FB11D5D9612
:100440008C91928D9F5F9F73928F90E008958FEFB4
:100450009FEF0895FC01918D828D981731F0828D68
:10046000E80FF11D858D90E008958FEF9FEF0895BF
:10047000FC01918D228D892F90E0805C9F4F821B23
:1004800091098F73992708958CEE95E00E943802A8
:1004900021E0892B09F420E0822F0895FC01A48D2E
:1004A000A80FB92FB11DA35ABF4F2C91848D90E096
:1004B00001968F739927848FA689B7892C93A08979
:1004C000B1898C91837080648C93938D848D981303
:1004D00006C00288F389E02D80818F7D8083089596
:1004E000EF92FF920F931F93CF93DF93EC0181E084
:1004F000888F9B8D8C8D98131AC0E889F98980812B
:1005000085FF15C09FB7F894EE89FF896083E8895D
:10051000F98980818370806480839FBF81E090E04F
:10052000DF91CF911F910F91FF90EF900895F62EDC
:100530000B8D10E00F5F1F4F0F731127E02E8C8D76
:100540008E110CC00FB607FCFACFE889F9898081BB
:1005500085FFF5CFCE010E944E02F1CFEB8DEC0F5F
:10056000FD2FF11DE35AFF4FF0829FB7F8940B8FD8
:10057000EA89FB8980818062CFCFCF93DF93EC0142
:10058000888D8823B9F0AA89BB89E889F9898C917B
:1005900085FD03C0808186FD0DC00FB607FCF7CF37
:1005A0008C9185FFF2CF808185FFEDCFCE010E9437
:1005B0004E02E9CFDF91CF91089590E0FC01ED5715
:1005C000FF4F2491FC01EB54FF4F3491FC01E753A2
:1005D000FF4FE491EE23C9F0222339F0233001F1DB
:1005E000A8F4213019F1223029F1F0E0EE0FFF1FBD
:1005F000EF55FF4FA591B4918FB7F894EC9161112D
:1006000026C030953E233C938FBF08952730A9F034
:100610002830C9F0243049F7809180008F7D03C0D5
:10062000809180008F7780938000DFCF84B58F77B3
:1006300084BDDBCF84B58F7DFBCF8091B0008F77F9
:100640008093B000D2CF8091B0008F7DF9CF3E2B48
:10065000DACFCF93DF9390E0FC01EB54FF4F24916E
:1006600087539F4FFC0184918823C9F090E0880F45
:10067000991FFC01E555FF4FA591B491FC01EF5581
:10068000FF4FC591D49161110DC09FB7F8948C9123
:10069000209582238C938881282328839FBFDF9114
:1006A000CF910895623051F49FB7F8943C91822F16
:1006B000809583238C93E8812E2BEFCF8FB7F8940E
:1006C000EC912E2B2C938FBFEACF8E5080648093B9
:1006D0007C0080917A00806480937A0080917A0017
:1006E00086FDFCCF809178009091790008953FB706
:1006F000F8948091730390917403A0917503B09165
:10070000760326B5A89B05C02F3F19F00196A11DC1
:10071000B11D3FBFBA2FA92F982F8827BC01CD014B
:10072000620F711D811D911D42E0660F771F881FAA
:10073000991F4A95D1F708958F929F92AF92BF92D9
:10074000CF92DF92EF92FF926B017C010E947703C0
:100750004B015C01C114D104E104F104B9F00E9421
:100760007703681979098A099B09683E73408105F6
:10077000910580F321E0C21AD108E108F10888EE62
:10078000880E83E0981EA11CB11CE4CFFF90EF906F
:10079000DF90CF90BF90AF909F908F900895EF9291
:1007A000FF920F931F93CF93DF937C01062F0E943C
:1007B000AF01E70110E0CE018E199F098017910764
:1007C00024F489910E943F01F6CF0E9412016091AA
:1007D000E80570E090E080E0DF91CF911F910F91EC
:1007E000FF90EF900C949C032FB7F89460916F03E7
:1007F0007091700380917103909172032FBF0895DF
:100800006F927F928F929F92AF92BF92CF92DF9220
:10081000EF92FF921F93CF93DF93CDB7DEB7299767
:100820000FB6F894DEBF0FBECDBF0E94F403FE01E9
:10083000339687E0DF011D928A95E9F781E089838D
:1008400082E48A8315E027E0C22ED12C7E01BAE033
:10085000EB0EF11C33EDA32E35E0B32E0E942101E7
:100860000E9430010E94AF01C6010197F1F7FE011D
:1008700031963F019EEB892E95E0992ED3018D9103
:100880003D010E943F01F40181934F016E147F04EA
:10089000A9F78091BF05893769F487EC882E85E038
:1008A000982E80E00E943F01D4018D934D01AA163D
:1008B000BB06B9F70E9412018091BF05807F803787
:1008C00021F165E089E691E00E94CF0369E080E6CE
:1008D00091E00E94CF038091EA05882329F065E02A
:1008E0008BE591E00E94CF038091EB05882329F0EE
:1008F00069E082E591E00E94CF0369E089E491E03C
:100900000E94CF03115009F0A9CF8091D605909194
:10091000D7059093D5058093D4058091C10590911A
:10092000C2059093D7058093D6050E94F403609387
:10093000E4057093E5058093E6059093E705299615
:100940000FB6F894DEBF0FBECDBFDF91CF911F91E0
:10095000FF90EF90DF90CF90BF90AF909F908F90DF
:100960007F906F900895DC01EC91EC3090F511963A
:100970008C91119728E830E0281B310987FD3395C9
:10098000220F331F220F331F6217730784F0129652
:100990008C9128E532E0281B310987FD3395220F21
:1009A000331F220F331F621773070CF49B01225071
:1009B0003109220F331F4FB7F8948E2F90E0FC01BE
:1009C000EE0FFF1FE80FF91FE757F94F328321831E
:1009D0004FBF089561E084E00E94DD0264E670E0AC
:1009E00080E090E00E949C0360E084E00E94DD02D1
:1009F00064E670E080E090E00C949C030F931F93FA
:100A0000CF93DB01FC0101E010E02081222339F1CA
:100A10003C91231322C09D01D901CC912F5F3F4F00
:100A2000CC2371F0AF014F5F5F4FE081CE1799F09B
:100A3000261B370BF801E21BF30BE40FF51FDB015C
:100A40002C912111E2CF9F01281B390BC901CF91B5
:100A50001F910F910895FA01DFCF3196D6CF90E024
:100A600080E0F5CF61E0FC0187810C94DD0260E05D
:100A7000FC0187810C94DD028EBD00000DB407FEE1
:100A8000FDCF8EB50895862F0C943C0584E08093AD
:100A9000B4068EEA96E00E94370589EB0E943C0579
:100AA0008EEA96E00E9432058FE090E00197F1F720
:100AB0009FB7F8948091BF04882319F081508093E8
:100AC000BF048091BF04811103C08CB58F7B8CBDA6
:100AD0009FBF0895CF938EEA96E00E94370585E088
:100AE0000E943C058FEF0E943C05C82F8EEA96E0DD
:100AF0000E9432058C2F8170CF910895CF92DF92A2
:100B0000EF92FF920F931F93CF93DF93CDB7DEB792
:100B100028970FB6F894DEBF0FBECDBFC090B206C7
:100B2000D090B306F12CE12C8EEA96E00E943705B6
:100B300085E00E943C0580E00E943C0580FD14C0D9
:100B40008EEA96E00E94320581E028960FB6F8946E
:100B5000DEBF0FBECDBFDF91CF911F910F91FF90F0
:100B6000EF90DF90CF9008950E94F403C114D10458
:100B7000E104F10469F009811A812B813C81601B39
:100B8000710B820B930B6C157D058E059F0598F2FA
:100B90008EEA96E00E94320580E0D7CFEF92FF9276
:100BA0000F931F93CF93DF93C72FD82F7A0189011B
:100BB0000E947E05882351F18EEA96E00E94370557
:100BC00083E00E943C058D2F0E943C058C2F0E94E3
:100BD0003C0580E00E943C05E701E00EF11E80E04C
:100BE0000E943C058993CE15DF05C9F78EEA96E091
:100BF0000E9432050E946A058111FCCFC801DF9175
:100C0000CF911F910F91FF90EF90089510E000E0B9
:100C1000F5CFCF938AE08093B50662E08CE00E9426
:100C20002903CFB7F8948091BF04811127C0E3ED69
:100C3000F0E08491EFEBF0E09491E82FF0E0EE0F1C
:100C4000FF1FE555FF4FA591B491EC91E92321F4E5
:100C500061E08AE00E94DD0261E08AE00E942903EF
:100C60008CB580618CBD8CB580648CBD61E08DE0FD
:100C70000E94290361E08BE00E9429038091BF0458
:100C80008F5F8093BF04CFBF8CB58F7D8CBD8CB53B
:100C90008C7F8CBD8DB581608DBD8CB5837F8CBD07
:100CA0008EEA96E00E94320588EC90E09093B306BD
:100CB0008093B20684E08093B4068EEA96E00E94A8
:100CC00037058BEA0E943C058EEA96E00E943205C9
:100CD0008FE090E00197F1F786E08093B40681E021
:100CE000CF9108958EEA96E00E9437058091B40670
:100CF0000E943C058EEA96E00C943205CF93DF9378
:100D0000C72FD82F0E9472068EEA96E00E94370500
:100D100080E20E943C058D2F0E943C058C2F0E9492
:100D20003C0580E00E943C058EEA96E00E94320578
:100D30000E946A058111FCCF81E0DF91CF91089577
:100D400042E050E06FE971E08CEE95E00C94DA013E
:100D5000CF93DF93FC0101900020E9F73197AF01B9
:100D6000481B590BBC018CEE95E00E94DA01EC01A6
:100D70000E94A0068C0F9D1FDF91CF9108953F9296
:100D80004F925F926F927F928F929F92AF92BF929B
:100D9000CF92DF92EF92FF920F931F93CF93DF9347
:100DA0006A0179014B015C01820E931EA11CB11CEA
:100DB000892C9A2CAB2CBB242401672F782F892FE8
:100DC0009927EB0110E000E0C415D50578F50E94E5
:100DD0007E05882309F45FC00E9472068EEA96E0C1
:100DE0000E94370582E00E943C058D2F0E943C0541
:100DF0008C2F0E943C0580E00E943C05312C36017E
:100E0000600E711EF301E30DF11D80810E943C050F
:100E100081E0830D9FEF391207C013958EEA96E0AB
:100E20000E9432052196D0CF382EECCF0E151F052B
:100E300068F50E947E05882371F10E9472068EEA91
:100E400096E00E94370582E00E943C05892D0E94B1
:100E50003C05882D0E943C0580E00E943C05B12C99
:100E6000E701C01BD10B8B2D90E0C817D90750F0BC
:100E70008C0D9D1DFC01E00FF11F80810E943C053F
:100E8000B394F1CF8EEA96E00E9432050E946A0583
:100E90008111FCCF8701C801DF91CF911F910F9184
:100EA000FF90EF90DF90CF90BF90AF909F908F908A
:100EB0007F906F905F904F903F9008950E94090639
:100EC00060E070EF8FEF9FEF0E947E0627E530E035
:100ED0004CE953E060E070EF8FEF9FEF0E94BF0698
:100EE0000C9446050F931F93CF93DF938C01D0E0B2
:100EF000C0E0F801EC0FFD1F6491662341F08CEE19
:100F000095E00E947002892B11F02196F2CF0E9489
:100F1000A0068C0F9D1FDF91CF911F910F91089517
:100F20002F923F924F925F926F927F928F929F92F9
:100F3000AF92BF92CF92DF92EF92FF920F931F93E7
:100F4000CF93DF9300D000D0CDB7DEB77C01FC019A
:100F50008081833261F48481803549F485818132D6
:100F600031F464EF71E080E090E00E949C03C701DF
:100F70000E94A80620916A0330916B03F7018081DB
:100F8000232B09F440C0833239F58481803521F563
:100F90008185813209F521812053330B44E6429F3C
:100FA000C001439F900D11242281FAE02F9F800DF4
:100FB000911D1124805E9140F70123812053330B52
:100FC000820F931F9093690380936803892B21F408
:100FD00010926B0310926A030F900F900F900F9076
:100FE000DF91CF911F910F91FF90EF90DF90CF9005
:100FF000BF90AF909F908F907F906F905F904F9039
:101000003F902F900895833209F04CC18481803540
:1010100009F04BC18581833509F0FCC0868183349A
:1010200009F043C187818B3409F03FC1818180532E
:10103000990B34E6389FA001399F500D11245A8333
:10104000498382818053990B2AE0289FA001299F20
:10105000500D112469817A81640F751F838180533B
:10106000990B680F791F7A83698370936903609382
:1010700068036630710508F0AFCF81858053990B06
:10108000389F8001399F100D112482858053990B60
:10109000289FA001299F500D1124040F151F83853F
:1010A0008053990B080F191F0F3711050CF094CFBF
:1010B00080859CE0969F9001979F300D1124F90147
:1010C000EF5FFE4F6F0182809380A480B5808B32EA
:1010D00009F065C0CB01880F991F9C012B513C4F33
:1010E0007901F90160817181072E000C880B990B41
:1010F0000E9416229B01AC01C501B4010E9400238D
:101100004B015C01B801012E000C880B990B0E9469
:1011100016229B01AC01C501B4010E940123F60116
:101120006283738384839583F701118300832CE0AA
:1011300049815A81249FC001259F900D1124BC0133
:101140006F5F7E4F7A836983FB0162817381848143
:1011500095810E94E623E981FA81718360838FE69D
:1011600092E1A3E8BAE380879187A287B3870F90C3
:101170000F900F900F90DF91CF911F910F91FF90E3
:10118000EF90DF90CF90BF90AF909F908F907F9027
:101190006F905F904F903F902F900C945E078D3230
:1011A00031F62CE049815A81249FC001259F900D82
:1011B0001124BC016F5F7E4F6B01CA01880F991F1C
:1011C000FC01EB51FC4F7F0160817181072E000C07
:1011D000880B990B0E9416229B01AC01C501B4013A
:1011E0000E9400234B015C01B801012E000C880B0A
:1011F000990B0E9416229B01AC01C501B4010E940B
:101200000023F6016283738384839583119501958E
:1012100011098ACF843409F048C08681833509F0EA
:1012200044C08781843509F040C021812053330BAD
:1012300044E6429FC001439F900D11242281FAE0B1
:101240002F9F800D911D1124805E9140F701238115
:101250002053330B820F931F90936903809368038D
:101260008630910508F0B8CE2CE0289FA001299F78
:10127000500D11244F5F5E4F5A8349838FE692E1F0
:10128000A3E8BAE3FA0180879187A287B3876281D6
:101290007381848195810E94E623E981FA817183BB
:1012A00060839ACE8B3709F097CEF701019000202A
:1012B000E9F731974F018E189F0810926903109239
:1012C00068031092670310926603109265031092F0
:1012D00064031092630310926203C0906003D09085
:1012E0006103B12CA12C90E080E030E020E02815D3
:1012F000390508F053C1F701E20FF31F4081B9012E
:101300006F5F7F4F7C836B834332E9F4EB81FC8119
:10131000EE0DFF1D40814035B9F1EB81FC81E815F0
:10132000F90591F1FAE0F89F9001F99F300D112431
:10133000C901C097840F911D2B813C812F5F3F4FC6
:101340003C832B83E3CF403531F5EB81FC81EE0DFF
:10135000FF1D40814435C1F06B817C8168157905A2
:1013600099F07AE07A9D90017B9D300D112459010E
:10137000E0E3AE1AB108A40EB11C2B813C812F5FB3
:101380003F4F3C832B83E1CF2B813C81215031099E
:101390002F5F3F4FACCF4435D9F710E000E0EB8131
:1013A000FC81EE0DFF1D40814132B1F06B817C81EB
:1013B0008616970689F07AE0709F9001719F300D34
:1013C0001124890100531109040F111DEB81FC81C7
:1013D0003196FC83EB83E3CF0431110510F404E173
:1013E00010E08F3F910509F064C0C501845F914012
:1013F000813D974008F056C0003127E2120708F0FF
:1014000051C0C80164E170E00E94262490E080E0B1
:101410000E9414222B013C0145EE53E05A8349837C
:1014200051E0252E51E0352EE981FA81C190D1900D
:10143000FA83E983CA0CDB1CF4EFCF16F1E0DF0678
:1014400020F444EFC42EDD24D39425ECC21629E009
:10145000D20620F034ECC32E39E0D32EF101D18234
:10146000C08217830683B60190E080E00E941422B8
:10147000F10122813381448155810E940023A3011F
:1014800092010E946D23F1016087718782879387A3
:10149000FCE02F0E311C21EF33E049815A812417E3
:1014A000350711F62B813C81B12CA12C90E080E016
:1014B0006FCF86309105B0F79501245F3140213D13
:1014C000374080F7013167E2160760F7FC01EE0F45
:1014D000FF1FEB51FC4F20813181A20EB31E75EC32
:1014E000A71679E0B70608F04CC02CE0289FF00161
:1014F000299FF00D1124EF5FFE4FB182A0825CE0C6
:10150000589FF001599FF00D1124EF5FFE4F20818D
:101510003181243F314020F424EF31E031832083B6
:101520004CE0489F9001499F300D1124B9016F5F35
:101530007E4F5B01FB01178306836081718190E020
:1015400080E00E941422F50122813381448155817B
:101550000E9400232B013C01C80164E170E00E945D
:10156000262490E080E00E9414229B01AC01C3017C
:10157000B2010E946D23F50160877187828793878E
:1015800091CF3CE0389FF001399FF00D1124EF5FBF
:10159000FE4F44EC59E051834083B1CF3093630355
:1015A000209362039093690380936803B09267036A
:1015B000A0926603D0926103C0926003109265030B
:1015C0001092640309CDCF93DF93EC010E940906CA
:1015D000BE01DD0F880B990B29E0660F771F881F6E
:1015E000991F2A95D1F72DEF30E040EC54E00E948E
:1015F000CE050E94B600E5E0F4E080839183990F68
:10160000990B909307049093080490930904909386
:101610000A0490930B0490930C0480EC94E00E94D5
:101620009007DF91CF910C944605FC018081918158
:10163000009711F00C94B3250895FC0124813581A5
:10164000FB014481558124173507E1F4FC018081B9
:101650009181FB01608171810097D1F06115710565
:10166000A1F4232BC1F0FC01808190E008C0232B62
:1016700091F0FB01808190E091958195910921E0A5
:10168000892B09F020E0822F08950E940227F7CFCE
:101690006115710561F721E0F6CF0F931F93CF938A
:1016A000DF93EC0188819981009759F02A813B8171
:1016B0002617370730F081E0DF91CF911F910F910E
:1016C00008958B016F5F7F4F0E943C26009759F071
:1016D000998388831B830A832C813D81232B59F7AF
:1016E000FC011082E8CF80E0E7CFEF92FF920F93EA
:1016F0001F93CF93DF93EC017B018A01BA010E9413
:101700004D0B28813981811114C02115310519F043
:10171000C9010E94B325198218821D821C821B8276
:101720001A82CE01DF91CF911F910F91FF90EF9020
:1017300008951D830C83B701C9010E940B27F1CFC7
:1017400050E040E061EA71E00C94750BFC011182FD
:1017500010821382128215821482F6E0873B9F0763
:1017600069F06091B7067091B8066115710531F0A6
:101770004091BB065091BC060C94750B0895FC017A
:10178000118210821382128215821482FB01019051
:101790000020E9F73197AF01461B570B0C94750BEE
:1017A000BF92CF92DF92EF92FF920F931F93CF934E
:1017B000DF9300D0CDB7DEB782E0D82E01E093E012
:1017C000C92E24E0B22E8CEE95E00E943802892BBF
:1017D00009F4A1C08CEE95E00E941602182F8093A8
:1017E0006C038091FA03811196C08091F7038111F7
:1017F00015C01C3309F04AC0B092F7030E94F403ED
:101800006093F3037093F4038093F5039093F603CE
:101810000093BE048DEB96E00E94A00B19831A8200
:10182000E090C106F090C2068FEFE81AF80AB701FF
:101830008DEB96E00E944D0B882399F02091BD0618
:101840003091BE068091C1069091C206BE016F5FC5
:101850007F4F820F931F0E940B27F092C206E092E7
:10186000C1068091F703843009F51E3311F400930B
:10187000FA038091C1069091C2068E3F910508F44B
:10188000A2CF8DEB96E00E94A00B9DCF1B3719F4E1
:10189000C092F703BFCF143219F40093F703BACF05
:1018A000133209F0B7CFD092F703B4CF833019F4D5
:1018B0001D37F9F6DCCF813039F51132D1F6609160
:1018C000BD067091BE066115710549F04091C106D3
:1018D0005091C20687EB96E00E94750BC8CF8091AD
:1018E000B7069091B806009711F00E94B3251092A8
:1018F000B8061092B7061092BC061092BB06109262
:10190000BA061092B906B3CF823009F0B2CF1132C5
:1019100009F0AFCFACCF0F900F90DF91CF911F9117
:101920000F91FF90EF90DF90CF90BF9008950E94AD
:10193000440281110C94D00B08950F931F9360E023
:101940008FE00E94DD0283E090E00197F1F761E013
:101950008FE00E94DD0283E290E00197F1F760E002
:101960008FE00E94DD02E5ECF0E06491E9EDF0E04B
:10197000E491F0E0EE0FFF1FE956FF4F859194913F
:1019800000E412E42FE030E0462F0E9407106115BA
:1019900071058105910529F06F5F7F4F8F4F9F4F34
:1019A0009F700E94142220E030E048E652E40E943A
:1019B0006D231F910F9108958F929F92AF92BF92C6
:1019C000CF92DF92EF92FF920F931F93CF93DF930B
:1019D00000D000D000D0CDB7DEB78C0162EA71E054
:1019E0000E94FE047C0182EA91E0E114F10409F016
:1019F00044C068EA71E0C8010E94FE04892BA9F086
:101A0000F701099526960FB6F894DEBF0FBECDBF3D
:101A1000DF91CF911F910F91FF90EF90DF90CF90CA
:101A2000BF90AF909F908F9008956EEA71E0C801CB
:101A30000E94FE04892B21F184EB91E00E94A8060C
:101A4000F12CE12C01E011E0F6E0EF16F10484F452
:101A5000F80162817381848195810E94E623F801F7
:101A600071836083FFEFEF1AFF0A045F1F4FECCF13
:101A700081E0809300018EEB91E00E94A806C2CF26
:101A800067EC71E0C8010E94FE04892B49F1CE0188
:101A900001969F938F938DEC91E09F938F931F936B
:101AA0000F930E9444270F900F900F900F900F906C
:101AB0000F90892B01F389819A812CE0289F800166
:101AC000299F100D11240F5F1E4FF8016281738151
:101AD000848195810E94E623F80171836083CBCFD6
:101AE0005E01F5E0AF0EB11CBF92AF927E0123E024
:101AF000E20EF11CFF92EF9286ED91E09F938F939F
:101B00001F930F930E9444270FB6F894DEBF0FBEB9
:101B1000CDBF892B09F452C0CD80DE800B811C81A2
:101B20008CED95E07C01EC18FD084801F4E28F1A79
:101B3000FAEF9F0AFF92EF929F928F9282EE91E0CE
:101B40009F938F933DE6A32E34E0B32EBF92AF92C6
:101B50000E942127C5010E94A806FF92EF929F9242
:101B60008F9281E092E09F938F93BF92AF920E94F9
:101B70002127C5010E94A806C8018C199D0997FD5F
:101B800001969595879591958195910984529A4FE3
:101B90009F938F9380E292E09F938F938DE694E0E2
:101BA0009F938F930E9421278DE694E00E94A806C0
:101BB0000FB6F894DEBF0FBECDBF24CF60E372E056
:101BC000C8010E94FE04892B09F467C0FF92EF92BE
:101BD000CE0101969F938F9386E392E09F938F931C
:101BE0001F930F930E9444270FB6F894DEBF0FBED9
:101BF000CDBF892B09F406CF86E790E00E947207DB
:101C00000E940906E980FA8047010F2C000CAA08FF
:101C1000BB0889E0880C991CAA1CBB1C8A95D1F7CB
:101C200092E4C92E92E0D92E8B819C818E159F055E
:101C30008CF12DEF30E0A801C501B4010E94CE0562
:101C4000F80180818B37A1F48181873489F4C80140
:101C50000E94A8066AE070E080E090E00E949C0389
:101C6000FFEFEF1AFF0A22E0920EA11CB11CDCCF9D
:101C7000FF92EF92DF92CF921F930F930E94212742
:101C8000C8010E94A8060F900F900F900F900F9020
:101C90000F90E0CF0E944605B5CE6FE472E0C80118
:101CA0000E94FE04892BD9F1BF92AF92FF92EF926E
:101CB000CE0101969F938F9385E592E09F938F933A
:101CC0001F930F930E9444270FB6F894DEBF0FBEF8
:101CD000CDBF892B09F496CE89819A819093FE031A
:101CE0008093FD032B813C813093FC032093FB0305
:101CF0004D815E8150930404409303045093020489
:101D000040930104909300048093FF03821793078C
:101D100019F40E94E30A76CE1092000173CE64E6B5
:101D200072E0C8010E94FE04892B09F46BCE81E0A9
:101D30008093BE040E94F4036093F3037093F40352
:101D40008093F5039093F60384E790E00E94720776
:101D500059CE1F920F920FB60F9211242F933F93DB
:101D60004F935F936F937F938F939F93AF93BF93A3
:101D7000EF93FF938CEE95E00E944E02FF91EF915E
:101D8000BF91AF919F918F917F916F915F914F9193
:101D90003F912F910F900FBE0F901F9018951F929B
:101DA0000F920FB60F9211242F938F939F93EF935F
:101DB000FF93E091FC05F091FD058081E091020622
:101DC000F091030682FD1BC09081809105068F5F14
:101DD0008F7320910606821741F0E0910506F0E02E
:101DE000E451FA4F958F80930506FF91EF919F91F3
:101DF0008F912F910F900FBE0F901F90189580819B
:101E0000F4CF1F920F920FB60F9211242F933F938E
:101E10008F939F93AF93BF9380916F0390917003C3
:101E2000A0917103B091720330916E0323E0230FF0
:101E30002D3758F50196A11DB11D20936E03809397
:101E40006F0390937003A0937103B093720380911A
:101E5000730390917403A0917503B091760301967A
:101E6000A11DB11D8093730390937403A093750318
:101E7000B0937603BF91AF919F918F913F912F9136
:101E80000F900FBE0F901F90189526E8230F029613
:101E9000A11DB11DD2CF1F920F920FB60F92112428
:101EA0002F933F934F935F936F937F938F939F9362
:101EB000AF93BF93CF93DF93EF93FF9380916D0325
:101EC000C091AD06D0E087FF24C01092850010922B
:101ED000840080916D038F5F80936D0380916D030B
:101EE000082E000C990B8C179D0724F480916D032C
:101EF0008C30C4F1809184009091850004968034E8
:101F00009C4908F47AC080918400909185000496E1
:101F100076C080916D03082E000C990B8C179D07DD
:101F2000C4F6E0916D038E2FEE0F990BFC01EE0FBE
:101F3000FF1FE80FF91FE757F94F808186FFC9CFD0
:101F4000E0916D038E2FEE0F990BFC01EE0FFF1F3A
:101F5000E80FF91FE757F94F808160E08F730E9407
:101F6000DD02B7CF2091840030918500E0916D03B0
:101F70008E2FEE0F990BFC01EE0FFF1FE80FF91FDC
:101F8000E757F94F81819281820F931F90938900C7
:101F900080938800E0916D038E2FEE0F990BFC016A
:101FA000EE0FFF1FE80FF91FE757F94F808186FFFB
:101FB00011C0E0916D038E2FEE0F990BFC01EE0F17
:101FC000FF1FE80FF91FE757F94F808161E08F731A
:101FD0000E94DD02FF91EF91DF91CF91BF91AF9110
:101FE0009F918F917F916F915F914F913F912F9131
:101FF0000F900FBE0F901F90189580E49CE990936E
:102000008900809388008FEF80936D03E3CFCF9298
:10201000DF92EF92FF920F931F93E82FF92F05C0E5
:10202000015011092109310961F19081962394171A
:10203000B9F305C0015011092109310911F190814D
:1020400096239413F7CFC12CD12CE12CF12C0AC08C
:102050008FEFC81AD80AE80AF80A0C151D052E05D4
:102060003F0579F080818623841791F36C2D7D2DB7
:102070008E2D9F2D1F910F91FF90EF90DF90CF90AD
:10208000089560E070E080E090E01F910F91FF9074
:10209000EF90DF90CF9008951092EF051092EE052B
:1020A00088EE93E0A0E0B0E08093F0059093F10516
:1020B000A093F205B093F30587E891E09093ED05C6
:1020C0008093EC0585EC90E09093F9058093F805FA
:1020D00084EC90E09093FB058093FA0580EC90E00F
:1020E0009093FD058093FC0581EC90E09093FF05B3
:1020F0008093FE0582EC90E09093010680930006A9
:1021000086EC90E0909303068093020610920506F9
:10211000109206061092070610920806E3ECF6E00D
:1021200025ED36E04FEF68EB7BE08091AD068C301B
:1021300040F591E0980F9093AD06808390E0DC012C
:10214000AA0FBB1FA80FB91FA757B94F12967C93B0
:102150006E93119733962E173F0739F761EA71E0B6
:102160008DEB96E00E94BF0B61EA71E087EB96E091
:102170000E94BF0B89E991E09093AF068093AE0671
:1021800008954083E7CFCF93DF93CDB7DEB769974C
:102190000FB6F894DEBF0FBECDBF789484B58260D1
:1021A00084BD84B5816084BD85B5826085BD85B5FB
:1021B000816085BD80916E00816080936E00109279
:1021C00081008091810082608093810080918100F4
:1021D0008160809381008091800081608093800085
:1021E0008091B10084608093B1008091B0008160E3
:1021F0008093B00080917A00846080937A0080910F
:102200007A00826080937A0080917A008160809366
:102210007A0080917A00806880937A001092C100E1
:10222000E091FC05F091FD0582E08083E091F805E6
:10223000F091F9051082E091FA05F091FB0580E13B
:10224000808310920406E0910006F091010686E07A
:102250008083E091FE05F091FF058081806180839D
:10226000E091FE05F091FF05808188608083E09118
:10227000FE05F091FF05808180688083E091FE0576
:10228000F091FF0580818F7D80830E94090627E5FC
:1022900030E04CE953E060E070EF8FEF9FEF0E9479
:1022A000CE050E9446058091F1039091F203C897F4
:1022B000F1F01092E6031092E5031092E8031092F9
:1022C000E7031092EA031092E9031092EC031092D4
:1022D000EB031092EE031092ED031092F0031092B4
:1022E000EF0388E390E09093F2038093F10361E0C1
:1022F0008DE00E94290361E08DE00E94DD0261E033
:1023000084E00E94290360E084E00E94DD02809165
:10231000E403883321F484EA93E00E94DC0C1092F9
:102320002C0410922B04109222041092210480E8B5
:102330008093B0048093AF048093AE048093AD0487
:102340001092200410921F0410922A041092290463
:10235000109226041092250410922804109227044B
:1023600010922404109223041092B1041092B2042B
:102370001092B3041092B4041092190410921A042B
:1023800010921B0410921C04109293031092940359
:10239000109295031092960310928F03109290035F
:1023A000109291031092920310928B0310928C035F
:1023B00010928D0310928E0310928703109288035F
:1023C0001092890310928A0310928303109284035F
:1023D0001092850310928603109215041092160431
:1023E000109217041092180410921E0410921D04EB
:1023F000109282031092810381E0809380031092F7
:102400007F0310927E0380E590E090937D0380939C
:102410007C0389E690E090937B0380937A0382E8C3
:1024200090E0909379038093780310927703109251
:10243000B5048091E403883309F4C6C00091E50334
:102440001091E60304521A4FB801012E000C880BBC
:10245000990B0E94162260930301709304018093EC
:10246000050190930601109302010093010110925F
:10247000090110920A0110920B0110920C010091B7
:10248000E7031091E80304521A4FB801012E000C23
:10249000880B990B0E94162260930F017093100114
:1024A000809311019093120110930E0100930D017E
:1024B0001092150110921601109217011092180136
:1024C0000091E9031091EA0304521A4FB801012E5A
:1024D000000C880B990B0E94162260931B017093CD
:1024E0001C0180931D0190931E0110931A0100930B
:1024F00019011092210110922201109223011092D1
:1025000024010091EB031091EC0304521A4FB8011F
:10251000012E000C880B990B0E9416226093270154
:10252000709328018093290190932A01109326012A
:102530000093250110922D0110922E0110922F016F
:10254000109230010091ED031091EE0304521A4FE6
:10255000B801012E000C880B990B0E941622609383
:1025600033017093340180933501909336011093B9
:102570003201009331011092390110923A01109208
:102580003B0110923C010091EF031091F0030452C3
:102590001A4FB801012E000C880B990B0E941622CD
:1025A00060933F01709340018093410190934201F9
:1025B00010933E0100933D01109245011092460197
:1025C000109247011092480151E0C52E51E0D52EDE
:1025D00003EC16E0EE24E394F12C7CE0B72EE2E06D
:1025E000AE2ED8018C918C3008F057C0F701ED5811
:1025F000FE4F908061E0892D0E942903F8018081BF
:10260000282F30E0F901EE0FFF1FE20FF31FE7570D
:10261000F94F292D2F739081907C922B9083D801B4
:1026200011961C92119712961C926B2D0E941A24DF
:102630008B9DA001112430E020E0BA01620F731FCE
:10264000FB01EE0FFF1FE60FF71FE757F94F9081D1
:1026500096FD15C02F5F3F4F2C30310571F781116A
:102660000EC010928000A0928100109285001092FE
:102670008400B19A80916F00826080936F00D801CE
:10268000EC918E2F90E0FC01EE0FFF1FE80FF91F79
:10269000E757F94F808180648083F6016081718102
:1026A000C8010E94B304FFEFEF1AFF0A0D5F1F4F2E
:1026B0002CE0C20ED11C37E0E316F10409F091CFF3
:1026C00064EF71E080E090E00E949C03E0ECF0E0B9
:1026D000E491E093D805E4EDF0E0E491F0E0EE0F52
:1026E000FF1FEF55FF4F859194919093DA058093EA
:1026F000D905E3ECF0E0E491E093DB05E7EDF0E0F1
:10270000E491F0E0EE0FFF1FEF55FF4F859194919C
:102710009093DD058093DC05E6ECF0E0E491E09336
:10272000DE05EAEDF0E0E491F0E0EE0FFF1FEF557B
:10273000FF4F859194919093E0058093DF05E1EC44
:10274000F0E0E491E093E105E5EDF0E0E491F0E004
:10275000EE0FFF1FE956FF4F859194919093E3058B
:102760008093E20561E08BE00E94290361E081E152
:102770000E94290361E08EE00E94290360E08CE062
:102780000E94290361E08CE00E94DD020E94210189
:102790000E9430010E9400040E9400048091BF0545
:1027A000813429F0833719F0893709F060C081E05E
:1027B0008093E8050BE010E037E0C32ED12C43E80E
:1027C000A42E41E0B42E7724739465E089E691E06D
:1027D0000E94CF03C6010197F1F70E9421010E94D8
:1027E00030010E94AF01C6010197F1F72AE7E22EFE
:1027F00021E0F22EAE014F5F5F4F4A01D7018D916C
:102800007D010E943F01F40181934F01AE14BF048A
:10281000A9F70E9412018C818093E90569E080E6A6
:1028200091E00E94CF0365E08BE591E00E94CF0329
:102830007092EA0569E082E591E00E94CF03709210
:10284000EB0569E089E491E00E94CF030E94000457
:102850008091BF05893759F0833749F0015011093C
:1028600031F08091E8058F5F8093E805AECF8BE66D
:1028700092E00E94A80662E082E00E94290362E0E2
:1028800080E10E9429038DE792E00E94A8060E9441
:10289000EA040E94EA040E94EA0468EB7BE080E01C
:1028A00090E00E949C038091E403883321F484EA41
:1028B00093E00E94DC0C84EB91E00E94A80660E0AB
:1028C00080E10E94290361E08FE00E94290362E019
:1028D00080E10E94290381EC282E82E0382E9DE2BF
:1028E000692E94E0792E0E94F403009198031091D0
:1028F000990320919A0330919B03601B710B820B0B
:10290000930B653F714081059105C0F00E94F4036F
:10291000609398037093990380939A0390939B0319
:102920001091970360E0111101C061E08DE00E94F9
:10293000DD0281E0111180E0809397038091FA031A
:10294000882311F10091C1061091C2060F3F1007B4
:1029500031F00115110509F0ABC11092C0041093BC
:10296000F9030093F8038091F703813009F0AEC1B9
:1029700080EC94E00E94DC0C1092FA031092F703B2
:102980008DEB96E00E94A00B0E94F4030091F303EC
:102990001091F4032091F5033091F603601B710B45
:1029A000820B930B693B7B408105910510F01092DF
:1029B000BE048091000181113EC30E94F4039B017B
:1029C000AC0160E070E080E090E0A0900D04B09079
:1029D0000E04C0900F04D0901004E0901104F09009
:1029E000120400911304109114040E94F324A09087
:1029F0000504B0900604C0900704D0900804E0904D
:102A00000904F0900A0400910B0410910C040E9438
:102A1000FC2451F14CF10E94F4038B019C01609362
:102A20000D0410930E0480930F0430931004109241
:102A30001104109212041092130410921404809145
:102A4000030490910404892B09F4BDC28091010410
:102A500090910204892B09F0B6C281E080930001B5
:102A600085EB92E00E94A8068091BE0481110C942F
:102A7000471F0E94F4039B01AC0160E070E080E01E
:102A800090E0A090B604B090B704C090B804D09085
:102A9000B904E090BA04F090BB040091BC0410911A
:102AA000BD040E94F324A4E10E94052509F00CF462
:102AB00086C00E94F4038B019C016093B6041093BE
:102AC000B7048093B8043093B9041092BA041092FA
:102AD000BB041092BC041092BD0443EC442E46E0AB
:102AE000542E01E011E0D8011896CD90DD90ED90C4
:102AF000FC901B9720E030E0A901C701B6010E94BD
:102B00000F22882309F451C0F8010190F081E02DD3
:102B1000FD8BEC8BBF0190E080E00E9414226E8B55
:102B20007F8B888F998FD80112962D913D914D9171
:102B30005C911597288B398B4A8B5B8B0E94002305
:102B40004B015C0120E030E0A9010E941524181619
:102B500024F0B7FAB094B7F8B09420E030E0A901BF
:102B6000C701B6010E941524A701960118160CF0A2
:102B70005058C501B4010E940F2218160CF46DC202
:102B80006C897D89C2010E94B3042E893F89488DDA
:102B9000598DD80112962D933D934D935C931597C3
:102BA000F8011086118612861386045F1F4FB3E06A
:102BB0004B0E511CE1E009341E0709F094CF8091BF
:102BC000B504811140C00E94F4030091B10410913A
:102BD000B2042091B3043091B404601B710B820BDA
:102BE000930B633371058105910568F10E94F4032D
:102BF0006093B1047093B2048093B3049093B404CF
:102C00000E9400048091C5058093B0048091C605A0
:102C10008093AF048091C3058093AE048091C40576
:102C20008093AD040E94F403683B7B4081059105CD
:102C300008F028C280E88093B0048093AF048093AA
:102C4000AE048093AD04CE0101960E94A60B0D81C7
:102C50001E81CE0101960E94150B012B09F459C764
:102C6000CE010A960E94A60B6DED72E0CE01019690
:102C70000E94BF0BBE016F5F7F4FCE010A960E947C
:102C80001D0B182FCE0101960E94150BCE010A963E
:102C90000E94150B112309F48CC581E090E09093FC
:102CA0002C0480932B0486EE92E00E94A806A7C510
:102CB0006091BD067091BE06A80180EC94E00E9470
:102CC0001227F801E054FB4F108249CE9EEF980F77
:102CD000923028F480EC94E00E9490074DCE84302E
:102CE00009F04ACE8091C104843279F58091C20402
:102CF000813249F41092E4030E945E078FE892E06B
:102D00000E94A80639CE81E4A4EAB3E01D928A9518
:102D1000E9F761EC74E084EA93E00E940B27E0ECB1
:102D2000F4E001900020E9F7E15CF440E456FC4F48
:102D3000168288E38093E4030E945E0782EA92E0B1
:102D40000E94A80684EA93E0DBCF873409F014CE12
:102D50008091C604833209F00FCE8091C204082E00
:102D6000000C990BC097E8EEF3E08E9F90018F9FC7
:102D7000300D9E9F300D11248091C304082E000C4D
:102D8000990BC09764E6689FA001699F500D1124BC
:102D9000240F351F8091C404082E000C990BC09796
:102DA0006AE0689FA001699F500D1124240F351F10
:102DB0008091C504082E000C990BC097A901480FFB
:102DC000591F5F8B4E8B952F990F990B2E893F8939
:102DD000492F592F692F792F892F2F3037424105DD
:102DE0005105610571058105910511F00CF0C4CD07
:102DF0008BE78093C004F801E154FB4F8DE780839B
:102E00000E94B600892E8C8B992E990C9908280166
:102E1000B4E04B0E511C5092F9034092F803F201BA
:102E2000E454FB4FF98BE88B58EEA52E63E0B62EE9
:102E3000C12CD12CE12CF12C00E010E0282F392FEF
:102E4000492D592D692D792D892D992D0E943C24CC
:102E5000205DA889B9892C93F201E354FB4FF98BCB
:102E6000E88B2C89382D492D592D692D792D892DE7
:102E7000992D0E943A24E4E6AE2EB12C0E943C2407
:102E8000205DA889B9892C93F201E254FB4FF98B9C
:102E9000E88B2C89382D492D592D692D792D892DB7
:102EA000992D0E943A24FAE0AF2E0E943C24205D26
:102EB000A889B9892C93F201E154FB4FF98BE88B77
:102EC0002C89382D492D592D692D792D892D992D34
:102ED0000E943A24205DA889B9892C93F201E0541C
:102EE000FB4F10820E940906EE89FF89CF01FF0F78
:102EF000AA0BBB0B6C017D0119E0CC0CDD1CEE1C98
:102F0000FF1C1A95D1F74C015D01BB0C8808982C69
:102F100054019C01AD01682D782D882D982D09E074
:102F20000E94DA243E7020E040E050E060E070E073
:102F300080E090E0A0E00E94052599F4D701C60149
:102F40009F70AA27BB27892B8A2B8B2B21F4C701C3
:102F5000B6010E947E0665E070E080E090E00E948D
:102F60009C03FFEF4F16510409F094F4920140ECDA
:102F700054E0C701B6010E94BF060E9446056EE1FB
:102F800070E080E090E00E949C0383EB92E0B8CE7A
:102F900020E031E040EC54E0C701B6010E94BF06DA
:102FA00065E070E080E090E00E949C032091F803CF
:102FB0003091F9033A95C701B6017F5F8F4F9F4F5C
:102FC00040EC55E0D8CF8091FF03909100040E941F
:102FD000E30A2091FD033091FE034091FB035091E1
:102FE000FC038091FF039091000424173507F4F44B
:102FF00048175907A9F4309300042093FF038091E8
:10300000030490910404892B09F42ECD80910104CE
:10301000909102040197909302048093010424CDBF
:103020000196909300048093FF031ECD4817590723
:1030300011F30197F6CF8AE08093050410920604FD
:1030400010920704109208041092090410920A04C6
:1030500010920B0410920C0407CD288939894A89F3
:103060005B89C701B6010E940123D80112966D93B6
:103070007D938D939C9315970E94DF23C2010E943C
:10308000B30493CD80E890E00E94BF01882309F447
:1030900082C087E08F9380ED8F9389E08F9380E6E5
:1030A0008F931F921F923F922F928DE694E09F93F1
:1030B0008F930E9421278DE694E00E9490070FB61F
:1030C000F894DEBF0FBECDBF80E890E00E949B0069
:1030D000882309F4EBC11F921F9282ED92E09F9327
:1030E0008F937F926F920E9421278DE294E00E943D
:1030F000A8060F900F900F900F900F900F90809157
:10310000B0048F3F69F48091AF048F3F49F4809100
:10311000AE048F3F29F48091AD048F3F09F493CD25
:103120002091AF0480E890E0821B910923E0880F92
:10313000991F2A95E1F790932A048093290480919E
:10314000AD048058990B33E0880F991F3A95E1F749
:1031500090932804809327048091290490912A0455
:10316000181619060CF44FC28091290490912A0474
:103170008D399F4F0CF04FC28091290490912A0401
:10318000893E93400CF468C288EE93E090932A0441
:103190008093290444C280E290E00E94BF0188230A
:1031A00041F087E08F9380ED8F9382E08F9388E5E5
:1031B00077CF80E190E00E94BF01882361F087E033
:1031C0008F9380ED8F9382E08F9388E58F931F928A
:1031D00081E08F9368CF80E490E00E94BF01882354
:1031E00041F087E08F9380ED8F9389E08F9380E6A5
:1031F000EDCF80E090E10E94BF01882359F087E085
:103200008F9380ED8F9389E08F9380E68F931F9249
:1032100082E0DFCF80E090E40E94BF01882351F07C
:1032200087E08F9380ED8F9382E08F9398E59F9353
:103230001F92CFCF80E090E80E94BF01882359F011
:1032400087E08F9380ED8F9382E08F9388E58F9353
:103250001F9283E0BECF80E090E20E94BF018823EE
:1032600041F087E08F9380ED8F9389E08F9380E624
:10327000EECF80E094E00E94BF01882359F087E000
:103280008F9380ED8F9382E08F9388E58F931F92C9
:1032900084E09FCF80E098E00E94BF01882341F046
:1032A00087E08F9380ED8F9389E08F9380E6EECF58
:1032B00080E091E00E94BF01882359F087E08F935E
:1032C00080ED8F9382E08F9388E58F931F9285E046
:1032D00080CF80E092E00E94BF01882341F087E028
:1032E0008F9380ED8F9389E08F9380E6EECF82E01D
:1032F00090E00E94BF01882309F44FC01F921F92E3
:1033000001E00F9314EF1F931F9286E08F933F927B
:103310002F927F926F920E9421278DE294E00E946B
:10332000A8061F921F920F931F931F9287E08F93FF
:103330003F922F927F926F920E9421278DE294E01C
:103340000E94A8061F921F9219E01F9304EC0F938E
:103350001F9288E08F933F922F927F926F920E94EC
:1033600021278DE294E00E94A8061F921F921F93CE
:103370000F931F921F933F922F927F926F920E9402
:1033800021270FB6F894DEBF0FBECDBF8DE294E0CB
:103390000E94A8060E94EA0497CE84E090E00E9472
:1033A000BF018823E1F11F921F9219E01F9304ECE3
:1033B0000F931F9286E08F933F922F927F926F928E
:1033C0000E9421278DE294E00E94A8061F921F927E
:1033D0001F930F931F9287E08F933F922F927F92BC
:1033E0006F920E9421278DE294E00E94A8061F920E
:1033F0001F92FF24F394FF9204EF0F931F9288E033
:103400008F933F922F927F926F920E9421278DE29D
:1034100094E00E94A8061F921F92FF92A9CF88E015
:1034200090E00E94BF018823F1F010922C041092CA
:103430002B0487E08F9380ED8F9385E08F938CED45
:103440008F931F928FEF8F933F922F928DE694E090
:103450009F938F930E9421278DE694E00E9490070E
:103460000E94EA042CCE81E090E00E94BF018823F4
:1034700009F42ACE80912B0490912C04019690930C
:103480002C0480932B0480912B0490912C040197A1
:1034900009F480CF80912B0490912C04029709F4B9
:1034A00079CF10922C0410922B0474CF80E290E01C
:1034B0000E949B0081110FCE80E190E00E949B0052
:1034C000882321F01F9281E08F9307CE80E490E063
:1034D0000E949B008111F6CF80E090E10E949B004A
:1034E000882319F01F9282E0EFCF80E090E40E94E1
:1034F0009B008111F7CF80E090E80E949B00882319
:1035000019F01F9283E0E0CF80E090E20E949B00E0
:103510008111F7CF80E094E00E949B00882319F08E
:103520001F9284E0D1CF80E098E00E949B0081113F
:10353000F7CF80E091E00E949B00882319F01F9252
:1035400085E0C2CF80E092E00E949B008111F7CF1E
:1035500082E090E00E949B00882309F44CC01F92F7
:103560001F9205E00F931CED1F931F9286E08F932F
:103570003F922F927F926F920E9421278DE294E0DA
:103580000E94A8061F921F920F931F931F9287E01D
:103590008F933F922F927F926F920E9421278DE20C
:1035A00094E00E94A8061F921F920F931F931F92F0
:1035B00088E08F933F922F927F926F920E942127F3
:1035C0008DE294E00E94A8061F921F920F931F9312
:1035D0001F9289E08F933F922F927F926F920E9469
:1035E00021270FB6F894DEBF0FBECDBF8DE294E069
:1035F0000E94A80684CD84E090E00E949B0088236E
:1036000009F47DCDACCF8091290490912A048436B1
:1036100091050CF0B1CD10922A04109229048091EA
:103620002704909128041816190604F180912704A4
:10363000909128048D399F4F04F580912704909133
:103640002804893E93400CF4A5C028EE33E0309363
:1036500028042093270415C08091290490912A04FE
:1036600088319C4FE4F688E19CEF90CD809127044F
:10367000909128048436910504F710922804109242
:1036800027042091250430912604809129049091EB
:103690002A042817390761F4209123043091240467
:1036A00080912704909128042817390709F4CBCA80
:1036B0008091290490912A049093260480932504F4
:1036C00080912704909128049093240480932304EC
:1036D0008091290490912A041F921F9284529A4F3C
:1036E0009F938F931F9286E08F933F922F927F92AA
:1036F0006F920E9421278DE294E00E94A80680919B
:103700002704909128041F921F9284529A4F9F93EE
:103710008F931F9287E08F933F922F927F926F92A9
:103720000E9421278DE294E00E94A806809129043E
:1037300090912A041F921F9284529A4F9F938F93C5
:103740001F9288E08F933F922F927F926F920E94F8
:1037500021278DE294E00E94A80680912704909191
:1037600028041F921F9284529A4F9F938F931F9207
:1037700089E08F933F922F927F926F920E94212730
:103780000FB6F894DEBF0FBECDBF8DE294E00E946D
:10379000A80659CA809127049091280488319C4F2B
:1037A0000CF06FCF88E19CEF90932804809327045E
:1037B00068CFCE010A960E94A60B66EF72E0CE019A
:1037C00001960E94BF0BBE016F5F7F4FCE010A962C
:1037D0000E941D0B182FCE0101960E94150BCE01E1
:1037E0000A960E94150B112369F010922C04109276
:1037F0002B0484EB91E00E94A8060E94EA040E9438
:10380000EA0483C1CE010A960E94A60B63E073E02E
:10381000CE0101960E94BF0BBE016F5F7F4FCE01AC
:103820000A960E941D0B182FCE0101960E94150BBF
:10383000CE010A960E94150B112309F44DC01F9268
:103840001F92FF24F394FF9204EF0F931F9286E0E0
:103850008F933F922F927F926F920E9421278DE249
:1038600094E00E94A8061F921F9219E01F9394EC07
:10387000E92EEF921F9287E08F933F922F927F92D3
:103880006F920E9421278DE294E00E94A8061F9269
:103890001F921F93EF921F9288E08F933F922F9277
:1038A0007F926F920E9421278DE294E00E94A806E9
:1038B0001F921F92FF920F931F921F933F922F927E
:1038C0007F926F920E9421270FB6F894DEBF0FBE41
:1038D000CDBF8DE294E0E9C9CE010A960E94A60B05
:1038E00069E073E0CE0101960E94BF0BBE016F5FDD
:1038F0007F4FCE010A960E941D0B182FCE01019614
:103900000E94150BCE010A960E94150B1123E9F1B6
:103910001F921F9219E01F9304EC0F931F9286E0F1
:103920008F933F922F927F926F920E9421278DE278
:1039300094E00E94A8061F921F92EE24E394EF9257
:1039400084EFF82EFF921F9287E08F933F922F9281
:103950007F926F920E9421278DE294E00E94A80638
:103960001F921F92EF92FF921F9288E08F933F92D7
:103970002F927F926F920E9421278DE294E00E9405
:10398000A8061F921F921F9396CFCE010A960E94FF
:10399000A60B6FE073E0CE0101960E94BF0BBE0143
:1039A0006F5F7F4FCE010A960E941D0B182FCE012C
:1039B00001960E94150BCE010A960E94150B112349
:1039C000E1F11F921F9219E01F9304EC0F931F92D5
:1039D00086E08F933F922F927F926F920E942127D1
:1039E0008DE294E00E94A8061F921F921F930F93EE
:1039F0001F9287E08F933F922F927F926F920E9447
:103A000021278DE294E00E94A8061F921F921F9327
:103A10000F931F9288E08F933F922F927F926F9225
:103A20000E9421278DE294E00E94A8061F921F9217
:103A30001F930F931F921F9359C0CE010A960E94A5
:103A4000A60B64E173E0CE0101960E94BF0BBE019C
:103A50006F5F7F4FCE010A960E941D0B182FCE017B
:103A600001960E94150BCE010A960E94150B112398
:103A700009F417C21F921F9201E00F9314EF1F93D6
:103A80001F9286E08F933F922F927F926F920E94B7
:103A900021278DE294E00E94A8061F921F920F93A7
:103AA0001F931F9287E08F933F922F927F926F9286
:103AB0000E9421278DE294E00E94A8061F921F9287
:103AC0000F931F931F9288E08F933F922F927F92C4
:103AD0006F920E9421278DE294E00E94A8061F9217
:103AE0001F920F931F931F9289E08F933F922F9203
:103AF0007F926F920E9421270FB6F894DEBF0FBE0F
:103B0000CDBF8DE294E00E94A80687EB96E00E946C
:103B1000A00B20912B0430912C04809121049091D2
:103B200022042817390709F45AC080912B04909178
:103B30002C04909322048093210480912B04909173
:103B40002C04892B09F04BC01F921F9205E00F93A4
:103B50001CED1F931F9286E08F933F922F927F92CE
:103B60006F920E9421278DE294E00E94A8061F9286
:103B70001F920F931F931F9287E08F933F922F9274
:103B80007F926F920E9421278DE294E00E94A80606
:103B90001F921F920F931F931F9288E08F933F9263
:103BA0002F927F926F920E9421278DE294E00E94D3
:103BB000A8061F921F920F931F931F9289E08F9365
:103BC0003F922F927F926F920E9421270FB6F89416
:103BD000DEBF0FBECDBF8DE294E00E94A8068091AB
:103BE0002B0490912C04019709F097C048E552E00E
:103BF0005093200440931F0484E190E090931E04AE
:103C000080931D040E94F4030091190410911A047A
:103C100020911B0430911C04601B710B820B930BD1
:103C2000633371058105910508F477C00E94F403A0
:103C30006093190470931A0480931B0490931C04DE
:103C40000E949D0C0E94DF2360931504709316045C
:103C5000809317049093180480911D0490911E0482
:103C60004091150450911604609117047091180446
:103C7000092E000CAA0BBB0B481759076A077B07D4
:103C80000CF063C21F921F9205E00F931CED1F936F
:103C90001F9286E08F933F922F927F926F920E94A5
:103CA00021278DE294E00E94A8061F921F920F9395
:103CB0001F931F9287E08F933F922F927F926F9274
:103CC0000E9421278DE294E00E94A8061F921F9275
:103CD0000F931F931F9288E08F933F922F927F92B2
:103CE0006F920E9421278DE294E00E94A8061F9205
:103CF0001F920F931F931F9289E08F933F922F92F1
:103D00007F926F920E9421270FB6F894DEBF0FBEFC
:103D1000CDBF8DE294E00E94A80680912B04909183
:103D20002C04029709F0B3C024EF31E03093200453
:103D300020931F0448E250E050931E0440931D045A
:103D40000E94F4030091190410911A0420911B049D
:103D500030911C04601B710B820B930B6333710554
:103D60008105910508F493C00E94F403609319043F
:103D700070931A0480931B0490931C040E949D0C62
:103D80000E94DF2360931504709316048093170438
:103D90009093180480911D0490911E044091150485
:103DA000509116046091170470911804092E000CAC
:103DB000AA0BBB0B481759076A077B070CF0B6C262
:103DC00080911F04909120041F921F928C55994F4F
:103DD0009F938F931F9286E08F933F922F927F92B3
:103DE0006F920E9421278DE294E00E94A8068091A4
:103DF0001F04909120041F921F9284529A4F9F9308
:103E00008F931F9287E08F933F922F927F926F92B2
:103E10000E9421278DE294E00E94A80680911F0451
:103E2000909120041F921F928C55994F9F938F93CE
:103E30001F9288E08F933F922F927F926F920E9401
:103E400021278DE294E00E94A80680911F049091A2
:103E500020041F921F9284529A4F9F938F931F9218
:103E600089E08F933F922F927F926F920E94212739
:103E70000FB6F894DEBF0FBECDBF8DE294E00E9476
:103E8000A80668EE73E080E090E00E949C030E9428
:103E90004402882311F40C9473140E94D00B0C94E8
:103EA0006B14CE010A960E94A60B69E173E0CE0165
:103EB00001960E94BF0BBE016F5F7F4FCE010A9635
:103EC0000E941D0B182FCE0101960E94150BCE01EA
:103ED0000A960E94150B112351F11F921F9201E0C7
:103EE0000F9314EF1F931F9286E08F933F922F92B0
:103EF0007F926F920E9421278DE294E00E94A80693
:103F00001F921F920F931F931F9287E08F933F92F0
:103F10002F927F926F920E9421278DE294E00E945F
:103F2000A8061F921F9219E01F9304EC71CDCE01D9
:103F30000A960E94A60B6EE173E0CE0101960E94E4
:103F4000BF0BBE016F5F7F4FCE010A960E941D0B13
:103F5000182FCE0101960E94150BCE010A960E94E1
:103F6000150B1123E1F11F921F9219E01F9304EC2E
:103F70000F931F9286E08F933F922F927F926F92C2
:103F80000E9421278DE294E00E94A8061F921F92B2
:103F90001F930F931F9287E08F933F922F927F92F0
:103FA0006F920E9421278DE294E00E94A8061F9242
:103FB0001F92FF24F394FF9204EF0F931F9288E067
:103FC0008F933F922F927F926F920E9421278DE2D2
:103FD00094E00E94A8061F921F92FF922ACDCE0164
:103FE0000A960E94A60B63E273E0CE0101960E943E
:103FF000BF0BBE016F5F7F4FCE010A960E941D0B63
:10400000182FCE0101960E94150BCE010A960E9430
:10401000150B112309F44CC01F921F9205E00F935A
:104020001CED1F931F9286E08F933F922F927F92F9
:104030006F920E9421278DE294E00E94A8061F92B1
:104040001F920F931F931F9287E08F933F922F929F
:104050007F926F920E9421278DE294E00E94A80631
:104060001F921F920F931F931F9288E08F933F928E
:104070002F927F926F920E9421278DE294E00E94FE
:10408000A8061F921F920F931F931F9289E08F9390
:104090003F922F927F926F920E9421270FB6F89441
:1040A000DEBF0FBECDBF8DE294E00E94A8069DCB7F
:1040B000CE010A960E94A60B68E273E0CE0101963B
:1040C0000E94BF0BBE016F5F7F4FCE010A960E9418
:1040D0001D0B182FCE0101960E94150BCE010A96DA
:1040E0000E94150B112351F081E090E090932C0475
:1040F00080932B048FE293E00C945516CE010A9620
:104100000E94A60B64E473E0CE0101960E94BF0BEF
:10411000BE016F5F7F4FCE010A960E941D0B182FC4
:10412000CE0101960E94150BCE010A960E94150B36
:10413000112309F4EACCE2E0F0E0F0932C04E093E0
:104140002B048BE493E00C94551685E10E946503E3
:1041500081309240DCF184E10E9465038115924038
:10416000ACF580911F04909120041F921F928452FD
:104170009A4F9F938F931F9286E08F933F922F9237
:104180007F926F920E9421278DE294E00E94A80600
:104190001F921F9205E00F931CED1F931F9287E063
:1041A0008F933F922F927F926F920E9421278DE2F0
:1041B00094E00E94A80680911F04909120041F9211
:1041C0001F9284529A4F9F938F9384CD85E10E94D2
:1041D0006503811592400CF452C085E10E9465038D
:1041E000811592400CF099CD84E10E9465038130E5
:1041F00092400CF492CD1F921F9205E00F931CED9C
:104200001F931F9286E08F933F922F927F926F921F
:104210000E9421278DE294E00E94A80680911F044D
:10422000909120041F921F9284529A4F9F938F93D4
:104230001F9287E08F933F922F927F926F920E94FE
:1042400021278DE294E00E94A8061F921F920F93EF
:104250001F931F9288E08F933F922F927F926F92CD
:104260000E9421278DE294E00E94A80680911F04FD
:10427000909120041F921F9284529A4F54C084E15F
:104280000E946503811592400CF0A7CF80911F0416
:10429000909120041F921F92805C994F9F938F935F
:1042A0001F9286E08F933F922F927F926F920E948F
:1042B00021278DE294E00E94A80680911F0490912E
:1042C00020041F921F92805C994F9F938F931F929F
:1042D00087E08F933F922F927F926F920E942127C7
:1042E0008DE294E00E94A80680911F049091200422
:1042F0001F921F92805C994F9F938F931F9288E02B
:104300008F933F922F927F926F920E9421278DE28E
:1043100094E00E94A80680911F04909120041F92AF
:104320001F92805C994F9F938F93E5CC80911F04DF
:10433000909120041F921F9284529A4F9F938F93C3
:104340001F9286E08F933F922F927F926F920E94EE
:1043500021278DE294E00E94A80680911F0490918D
:1043600020041F921F92ACEDB5E0A81BB90BCD0144
:104370009F93AF931F9287E08F933F922F927F92EC
:104380006F920E9421278DE294E00E94A8068091FE
:104390001F04909120041F921F9284529A4F9F9362
:1043A0008F931F9288E08F933F922F927F926F920C
:1043B0000E9421278DE294E00E94A80680911F04AC
:1043C000909120041F921F92ECEDF5E0E81BF90B91
:1043D000CF019F93EF931F9289E08F933F922F928B
:1043E0007F926F920E9421270FB6F894DEBF0FBE16
:1043F000CDBF8DE294E00E94A80649CD87EB96E000
:104400000E94150B8DEB96E00C94150B91110C94FA
:104410007522803219F089508550C8F708950E949E
:10442000512208F481E00895E89409C097FB3EF416
:1044300090958095709561957F4F8F4F9F4F9923F1
:10444000A9F0F92F96E9BB279395F695879577956F
:104450006795B795F111F8CFFAF4BB0F11F460FF2F
:104460001BC06F5F7F4F8F4F9F4F16C0882311F087
:1044700096E911C0772321F09EE8872F762F05C09B
:10448000662371F096E8862F70E060E02AF09A9536
:10449000660F771F881FDAF7880F9695879597F92B
:1044A0000895990F0008550FAA0BE0E8FEEF1616C5
:1044B0001706E807F907C0F012161306E407F50718
:1044C00098F0621B730B840B950B39F40A2661F08C
:1044D000232B242B252B21F408950A2609F4A1402F
:1044E000A6958FEF811D811D08959927882708952E
:1044F00097F99F6780E870E060E008959FEF80EC97
:10450000089500240A941616170618060906089539
:1045100000240A9412161306140605060895092E9F
:104520000394000C11F4882352F0BB0F40F4BF2B0E
:1045300011F460FF04C06F5F7F4F8F4F9F4F08954E
:1045400057FD9058440F551F59F05F3F71F0479544
:10455000880F97FB991F61F09F3F79F08795089529
:10456000121613061406551FF2CF4695F1DF08C048
:10457000161617061806991FF1CF86957105610565
:1045800008940895E894BB2766277727CB0197F90D
:1045900008952F923F924F925F926F927F928F92E7
:1045A0009F92AF92BF92CF92DF92EF92FF920F93C2
:1045B0001F93CF93DF93CDB7DEB7CA1BDB0B0FB6CC
:1045C000F894DEBF0FBECDBF09942A883988488889
:1045D0005F846E847D848C849B84AA84B984C8841F
:1045E000DF80EE80FD800C811B81AA81B981CE0F16
:1045F000D11D0FB6F894DEBF0FBECDBFED010895FB
:104600005058BB27AA270E9418230C948F220E947F
:10461000812238F00E94882220F039F49F3F19F45B
:1046200026F40C947E220EF4E095E7FB0C9478229D
:10463000E92F0E94A02258F3BA1762077307840774
:10464000950720F079F4A6F50C94C2220EF4E095BB
:104650000B2EBA2FA02D0B01B90190010C01CA013C
:10466000A0011124FF27591B99F0593F50F4503EE7
:1046700068F11A16F040A22F232F342F4427585FD9
:10468000F3CF469537952795A795F0405395C9F7F1
:104690007EF41F16BA0B620B730B840BBAF09150A9
:1046A000A1F0FF0FBB1F661F771F881FC2F70EC048
:1046B000BA0F621F731F841F48F48795779567951B
:1046C000B795F7959E3F08F0B0CF9395880F08F007
:1046D0009927EE0F9795879508950E9481230C9452
:1046E0008F220E94882258F00E94812240F029F4F3
:1046F0005F3F29F00C94782251110C94C3220C9442
:104700007E220E94A02268F39923B1F3552391F3EE
:10471000951B550BBB27AA2762177307840738F030
:104720009F5F5F4F220F331F441FAA1FA9F335D08D
:104730000E2E3AF0E0E832D091505040E695001C41
:10474000CAF72BD0FE2F29D0660F771F881FBB1FFB
:10475000261737074807AB07B0E809F0BB0B802DD9
:10476000BF01FF2793585F4F3AF09E3F510578F005
:104770000C9478220C94C3225F3FE4F3983ED4F368
:10478000869577956795B795F7959F5FC9F7880FD9
:10479000911D9695879597F90895E1E0660F771F2B
:1047A000881FBB1F621773078407BA0720F0621BBC
:1047B000730B840BBA0BEE1F88F7E09508950E94E7
:1047C000E6236894B1110C94C32208950E94A82294
:1047D00088F09F5798F0B92F9927B751B0F0E1F0C2
:1047E000660F771F881F991F1AF0BA95C9F714C072
:1047F000B13091F00E94C222B1E008950C94C2221F
:10480000672F782F8827B85F39F0B93FCCF38695AA
:1048100077956795B395D9F73EF490958095709507
:1048200061957F4F8F4F9F4F08950E94512208F44A
:104830008FEF0895991B79E004C0991F961708F02F
:10484000961B881F7A95C9F780950895AA1BBB1BF4
:1048500051E107C0AA1FBB1FA617B70710F0A61B80
:10486000B70B881F991F5A95A9F780959095BC01A1
:10487000CD010895689401C0E894F92FF12B12F04E
:104880000C946E24A0E0B0E0E8E4F4E20C94CF22B3
:10489000092E059422F40E94CA24112392F4F0E810
:1048A0000F26FFEFE094F09400951095B094C0941B
:1048B000D094A194BF0ACF0ADF0AEF0AFF0A0F0BB8
:1048C0001F0B0E94792407FC0E94CA24CDB7DEB7D3
:1048D000ECE00C94EB22689401C0E8948F929F92D4
:1048E000CF93DF930E947924DF91CF919F908F9097
:1048F000089588249924F401E401B0E49F93AA2741
:104900009A158B049C04ED05FE05CF05D007A10781
:1049100098F4AD2FDC2FCF2FFE2FE92D982C892E68
:10492000982F872F762F652F542F432F322F222732
:10493000B85031F7BF9127C01B2EBF91BB27220F64
:10494000331F441F551F661F771F881F991F881C20
:10495000991CEE1FFF1FCC1FDD1FAA1FBB1F8A144F
:104960009B04EC05FD05CE05DF05A007B10748F067
:104970008A189B08EC09FD09CE09DF09A00BB10BD1
:1049800021601A94E1F62EF49401AF01BE01CD012D
:10499000000C0895609570958095909530954095A0
:1049A000509521953F4F4F4F5F4F6F4F7F4F8F4F28
:1049B0009F4F0895002E083090F0982F872F762F64
:1049C000652F542F432F322F22270850F4CF220F68
:1049D000331F441F551F661F771F881F991F0A9595
:1049E000B2F7002D08952A193B094C095D096E099B
:1049F0007F09800B910B08952A153B054C055D0539
:104A00006E057F058007910708950024A7FD009497
:104A10002A17300540055005600570058005900592
:104A20000895EE0FFF1F0590F491E02D09940F9368
:104A30001F93CF93DF938230910510F482E090E0D2
:104A4000E091D706F091D80630E020E0B0E0A0E099
:104A5000309799F42115310509F44AC0281B390B08
:104A600024303105D8F58A819B816115710589F162
:104A7000FB0193838283FE0111C040815181028139
:104A8000138148175907E0F04817590799F4109710
:104A900061F012960C93129713961C933296CF01E5
:104AA000DF91CF911F910F9108950093D706109336
:104AB000D806F4CF2115310551F04217530738F0CD
:104AC000A901DB019A01BD01DF01F801C1CFEF01AE
:104AD000F9CF9093D8068093D706CDCFFE01E20F91
:104AE000F31F819391932250310939832883D7CFC3
:104AF0002091D5063091D606232B41F420917001E8
:104B0000309171013093D6062093D50620916E0125
:104B100030916F012115310541F42DB73EB7409119
:104B2000720150917301241B350BE091D506F09171
:104B3000D606E217F307A0F42E1B3F0B2817390700
:104B400078F0AC014E5F5F4F2417350748F04E0FE9
:104B50005F1F5093D6064093D506819391939FCFC4
:104B6000F0E0E0E09CCFCF93DF930097E9F0FC0109
:104B7000329713821282A091D706B091D806ED0128
:104B800030E020E01097A1F420813181820F931F43
:104B90002091D5063091D6062817390709F061C053
:104BA000F093D606E093D506DF91CF910895EA0100
:104BB000CE17DF07E8F54A815B819E01411551055B
:104BC000B1F7E901FB83EA8349915991C40FD51FDD
:104BD000EC17FD0761F4808191810296840F951F87
:104BE000E90199838883828193819B838A83F0E0A2
:104BF000E0E012968D919C9113970097B9F52D9155
:104C00003C911197CD010296820F931F2091D506FA
:104C10003091D6062817390739F6309751F510929A
:104C2000D8061092D706B093D606A093D506BCCF6F
:104C3000D383C28340815181840F951FC817D90740
:104C400061F44E5F5F4F88819981480F591F5183EE
:104C500040838A819B81938382832115310509F0EA
:104C6000B0CFF093D806E093D7069ECFFD01DC01CC
:104C7000C0CF13821282D7CFB0E0A0E0E2E4F6E228
:104C80000C94CB228C01009751F4CB010E94172584
:104C90008C01C801CDB7DEB7E0E10C94E722FC013E
:104CA000E60FF71F9C0122503109E217F30708F4C1
:104CB0009DC0D901CD91DC911197C617D70798F007
:104CC000C530D10530F3CE0104978617970708F356
:104CD000C61BD70B2297C193D1936D937C93CF01C1
:104CE0000E94B325D6CF5B01AC1ABD0A4C018C0ED5
:104CF0009D1EA091D706B091D806512C412CF12CC5
:104D0000E12C109731F58091D5069091D606881543
:104D1000990509F05CC04616570608F058C0809106
:104D20006E0190916F01009741F48DB79EB740914D
:104D3000720150917301841B950BE817F90708F075
:104D400055C0F093D606E093D506F90171836083D0
:104D5000A0CF8D919C91119712966C9012971396FB
:104D60007C901397A815B90559F56C0142E0C40E63
:104D7000D11CCA14DB0420F1AC014A195B09DA0129
:104D80001296159780F06282738251834083D90115
:104D90006D937C93E114F10471F0D7011396FC93A9
:104DA000EE93129776CF22968C0F9D1FF901918377
:104DB0008083F301EFCFF093D806E093D70669CF55
:104DC0004816590608F42C017D01D3019ACFCB0176
:104DD0000E9417257C01009749F0AE01B8010E949E
:104DE000F926C8010E94B325870153CF10E000E0E7
:104DF00050CFFB01DC0102C001900D9241505040A8
:104E0000D8F70895FB01DC018D9101908019011004
:104E1000D9F3990B0895FB01DC0101900D9200205C
:104E2000E1F70895FB01DC014150504048F001904A
:104E30000D920020C9F701C01D9241505040E0F78B
:104E40000895AEE0B0E0E7E2F7E20C94D7220D89D6
:104E50001E8986E08C831A8309838FEF9FE79E83E8
:104E60008D83AE01475E5F4F6F89788DCE010196CD
:104E70000E945D272F813885020F131FF8011082D1
:104E80002E96E4E00C94F322AEE0B0E0EAE4F7E220
:104E90000C94D92285E08C838B899C899A838983A1
:104EA000AE01495E5F4F6D897E89CE0101960E94F9
:104EB000C22A2E96E2E00C94F522ABE0B0E0E3E6E5
:104EC000F7E20C94C9227C013B018A01FC011782A4
:104ED0001682838181FFC8C1CE0101965C01F70172
:104EE0009381F30193FD859193FF81913F01882385
:104EF00009F453C1853239F493FD859193FF819173
:104F00003F01853229F4B70190E00E94242CE7CFBD
:104F1000912C212C312CFFE1F31538F08B3211F15B
:104F200090F4803209F1833229F137FC3CC020ED46
:104F3000280F2A3050F536FE20C08AE0989E200DBA
:104F40001124922E06C08D3291F0803371F768944F
:104F500030F8F30193FD859193FF81913F01811119
:104F6000DACF21C0689431F8689432F8F2CF6894AF
:104F700033F8EFCF689434F8ECCFEAE02E9E200DA2
:104F80001124222E689435F8E4CF8E3229F436FCB1
:104F900004C1689436F8DDCF8C3619F4689437F87C
:104FA000D8CF8836B1F2982F9F7D95549330E0F09A
:104FB0008336A1F18337C1F1833509F063C028013D
:104FC000F2E04F0E511CF801C080D180692D70E0D5
:104FD00036FC02C06FEF7FEFC6010E94D22B4C015E
:104FE000689437F882010AC00C5F1F4FFFE3F98312
:104FF00088248394912C6501E89437F833FE2DC002
:10500000522C8114910471F5552009F468CFB70131
:1050100080E290E00E94242C5A94F6CFF80180811F
:1050200089830E5F1F4FE4CF2801F2E04F0E511C21
:10503000F801C080D180692D70E036FC02C06FEFAE
:105040007FEFC6010E94DD2B4C018201D5CFB70155
:1050500080E290E00E94242C2A942814190409F07C
:10506000B0F7CECFF60137FC859137FE81916F0105
:10507000B70190E00E94242C51105A94F1E08F1A4D
:105080009108BFCF843619F0893609F077C0F8014E
:1050900037FE6BC060817181828193810C5F1F4FED
:1050A000F32DFF763F2E97FF09C090958095709560
:1050B00061957F4F8F4F9F4F689437F82AE030E01B
:1050C000A5010E946C2CC82ECA188C2C432C36FECD
:1050D0000CC0E89440F8C91440F434FE05C032FC1A
:1050E00003C0F32DFE7E4F2E892C44FE95C0FE0199
:1050F000EC0DF11D8081803309F087C0242D297EBD
:10510000422E842D8870582E43FC95C040FE8FC0DF
:105110009C2C821418F42C0C922C981844FE91C0EC
:10512000B70180E390E00E94242C42FE09C088E78A
:1051300090E041FE02C088E590E0B7010E94242C77
:10514000C91408F48AC0CA94D12C9FEFC91AD90A8D
:10515000CA0CDB1CF60182916F01B70190E00E943E
:10516000242CAC14BD04B1F74FCF60817181072EA0
:10517000000C880B990B0E5F1F4F92CFD32CE89435
:10518000D4F82AE030E0853739F1232D297FD22E5B
:105190008F3601F148F48835A9F0F70186819781AF
:1051A0002B96E2E10C94E522803749F08837A9F785
:1051B000D4FE02C06894D2F820E130E00DC06894BB
:1051C000D4F8F6CF34FE03C0822F8660D82E20E1BB
:1051D00032E002C028E030E0F801D7FE0FC0608165
:1051E0007181828193810C5F1F4FA5010E946C2CFD
:1051F000C82ECA183D2CE89437F867CF60817181BA
:1052000090E080E00E5F1F4FF0CF42FC02C083941D
:1052100078CF8394839475CF842D867809F471CFE9
:10522000F6CFB70180E290E00E94242C8394821490
:10523000C0F3512C73CF522C5818821408F46ECF3F
:10524000F8CF842D867809F47BCF8BE241FE80E293
:1052500047FC8DE2B70190E071CFB70180E390E0A9
:105260000E94242C9A946CCF8FEF9FEF99CF20FD52
:1052700009C0FC0123FD05C022FF02C073836283C5
:1052800051834083089544FD17C046FD1DC0DB01D6
:10529000FC01AA0FBB1FEE1FFF1F1094D1F76A0F6E
:1052A0007B1F8E1F9F1F660F771F881F991F620F1E
:1052B000711D811D911D089533E0660F771F881FB2
:1052C000991F3150D1F7F3CF34E0F7CF0F931F93ED
:1052D000CF93DF938C01C8010E94E82BEC0197FD6E
:1052E00008C00E940622892BB1F7B801CE010E94A6
:1052F000542CCE01DF91CF911F910F9108958F9281
:105300009F92AF92BF92EF92FF920F931F93CF9312
:10531000DF938C01D62F7A01B22E0E94E82B9C01DC
:1053200033272B32310529F02D323105A9F4689449
:10533000B7F8D15061F480E0DF91CF911F910F91C8
:10534000FF90EF90BF90AF909F908F900895C8010D
:105350000E94E82B97FDEFCFCB2DCD7F2B2D207317
:10536000F9F48033E9F4AA24AA94AD0E89F0C801B7
:105370000E94E82B97FD0CC0282F2F7D283561F463
:10538000C264D25029F0C8010E94E82B97FF08C0E0
:10539000812C912C54011BC0B6FE2BC0C260DA2DAB
:1053A000812C912C540120ED280F283028F1C4FDC8
:1053B00009C02A3008F1C6FF05C02F7D3FEE320F2D
:1053C0003630C8F0B8010E94542CC1FFB4CFC7FFDB
:1053D00008C0B094A09490948094811C911CA11C4E
:1053E000B11C2C2FB501A401C7010E94372981E00F
:1053F000A3CFC261D4CF27504C2FC501B4010E9466
:1054000043294B015C01C260D15009F3C8010E94DD
:10541000E82B97FFC8CFD9CFA0E2B0E0E2E1FAE2F3
:105420000C94CE225C01962E7A01CE0101966C017D
:1054300080E2F60111928A95E9F7F501B3818901BD
:1054400030E020E0712C812CA0E041E050E0F80138
:10545000B3FD8591B3FF8191982F8F01811107C012
:1054600010E000E0C801A096EDE00C94EA228E3531
:1054700019F42115310541F1A21713064CF48D35AD
:1054800049F18D3229F4811006C0882483941DC00F
:10549000882009F464C0E92FE695E695E695EC0DC1
:1054A000FD2DF11D892F8770BA0101C0660F8A9505
:1054B000EAF78081682B6083791651F0971510F414
:1054C0009F5FE9CF9150E7CFA1E02F5F3F4FBFCF64
:1054D000812CFBCF882019F08E8180628E83AA23D5
:1054E00059F0F6019E012F5D3F4F808180958083AA
:1054F0003196E217F307C9F788248394C5010E9407
:10550000E82B97FD16C0E82FE695E695E695EC0D9D
:10551000FD2DF11D208130E0AC014770552702C000
:10552000359527954A95E2F720FD06C0B5010E9402
:10553000542C882069F094CFE114F10429F0F7018C
:105540008083C70101967C019A94812C9110D6CF5B
:10555000E114F10409F486CFF701108283CFE82F1C
:10556000E695E695E695EC0DFD2DF11D982F9770CB
:10557000BA0101C0660F9A95EAF79081692B6083A2
:10558000782EA3CFB0E0A0E0E8ECFAE20C94CC22B5
:105590006C01EB015A01FC0117821682512CF601B5
:1055A000E380FE01E3FC8591E3FE8191182FEF017A
:1055B0008823E9F090E00E940622892B21F0C601A1
:1055C0000E946629ECCF153241F4FE01E3FC1591EF
:1055D000E3FE1191EF01153269F4C6010E94E82B38
:1055E00097FD8EC01817D9F2B6010E94542C852D54
:1055F00090E08AC000E01A3231F4E3FC1591E3FE3A
:105600001191EF0101E0F12C20ED210F2A3048F13A
:1056100001FF37C0FF2059F31836B1F11C3609F4E9
:105620003DC0112321F3612F70E088E690E00E94D5
:10563000C72B892BE1F2912C812C00FD06C0F501CE
:1056400080809180C50102965C011E3679F5F601D5
:105650004681578170E060E0202FC4010E94372905
:105660009ECF02606F2D70E090E080E040E20E94EB
:105670004329F62EFE01E3FC1591E3FE1191EF01A3
:10568000C3CFFF24FA94C8CFFE01E3FC1591E3FEDB
:105690001191EF01183609F0C4CF08600460FE01D3
:1056A000E3FC1591E3FE1191EF01BBCF1336C1F47A
:1056B00001FD02C0FF24F394C6010E94E82B97FD70
:1056C0001FC08114910429F0F4018083C401019664
:1056D0004C01FA94F110F0CF00FD61CF53945FCFED
:1056E0001B35B9F49E01A4016F2DC6010E940C2A3E
:1056F000EC01892B89F7F6018381807309F477CF58
:105700008FEF9FEF511073CFCDB7DEB7EFE00C9462
:10571000E822C6010E94662997FDF2CF1F36A9F143
:1057200030F4143641F0193639F0006405C01337EF
:10573000B9F01537D1F70062202FA4016F2DC601F3
:105740000E947F298111C8CFD6CF8114910429F0FE
:10575000F4016082C40101964C01FA94FF2071F0BB
:10576000C6010E94E82B3C0197FD08C00E9406225A
:10577000892B59F3B601C3010E94542C8114910462
:1057800009F4AACFF4011082A7CF0061D5CFFC01A4
:105790000590061621F00020D9F7C0010895319731
:1057A000CF010895FC010590615070400110D8F7B9
:1057B000809590958E0F9F1F0895FC016150704059
:1057C00001900110D8F7809590958E0F9F1F089536
:1057D000CF93DF93EC012B8120FF1AC026FF0CC072
:1057E0002F7B2B838E819F8101969F838E838A815D
:1057F00090E0DF91CF91089522FF18C0E881F981F0
:105800008081082E000C990B009729F420622B83CD
:105810008FEF9FEFEECF3196F983E8832E813F81A2
:105820002F5F3F4F3F832E839927E3CFEA85FB8588
:10583000099597FFF3CF2B81019621F080E2822B0F
:105840008B83E6CF80E1FBCF0F931F93CF93DF9342
:10585000182F092FEB018B8181FD09C01FEF0FEF7E
:10586000812F902FDF91CF911F910F91089582FF8B
:1058700014C02E813F818C819D81281739073CF40B
:10588000E881F981CF0101969983888310838E8105
:105890009F8101969F838E83E3CFE885F985812FD1
:1058A0000995892BA1F3DACFFB01238120FF11C0D9
:1058B00026FD0FC08F3F980771F082832F7D2064F3
:1058C0002383268137812150310937832683992705
:1058D00008958FEF9FEF0895FA01AA27283051F11C
:1058E000203181F1E8946F936E7F6E5F7F4F8F4F11
:1058F0009F4FAF4FB1E03ED0B4E03CD0670F781F70
:10590000891F9A1FA11D680F791F8A1F911DA11D54
:105910006A0F711D811D911DA11D20D009F468948D
:105920003F912AE0269F11243019305D3193DEF635
:10593000CF010895462F4770405D4193B3E00FD0EB
:10594000C9F7F6CF462F4F70405D4A3318F0495DD6
:1059500031FD4052419302D0A9F7EACFB4E0A695B9
:105960009795879577956795BA95C9F700976105DB
:10597000710508959B01AC010A2E06945795479531
:1059800037952795BA95C9F7620F731F841F951F26
:10599000A01D089510E0C0E7D0E004C0FE010E9401
:0E59A00011252196C137D107C9F7F894FFCF22
:1059AE0001DC050080BB44E80300000000DC0500BC
:1059BE0080BB44E80300000000DC050080BB44E827
:1059CE000300000000DC050080BB44E8030000007B
:1059DE0000DC050080BB44E80300000000DC05008D
:1059EE0080BB44E80300000000014300005A5A5AED
:1059FE005A5A014F00FFFF03000000014D00000145
:105A0E0001440001030000000001430001000000FA
:105A1E00D90680000703050609080145005A5A5A9F
:105A2E005A5A5A000000007002DA010702BD02380D
:105A3E000216022A02000000003705430532050D4A
:105A4E000A0024445253210024525354210024446A
:105A5E0053542100233235355044535421004044D1
:105A6E006F53746F702100244453543A00244453EE
:105A7E00543A25642100244443523A25642C25646B
:105A8E0021002330303650253034645430303030DD
:105A9E0021233030375025303464543030303021AB
:105AAE0000233030385025303464543030303021BB
:105ABE0023303039502530346454303030302100AA
:105ACE0023303030502530346454303030302100A3
